{
	"Contracts/User.sol": {
		"UserContract": {
			"abi": [
				{
					"inputs": [
						{
							"internalType": "string",
							"name": "_fullName",
							"type": "string"
						},
						{
							"internalType": "uint256",
							"name": "_dateOfBirth",
							"type": "uint256"
						},
						{
							"internalType": "enum UserContract.Gender",
							"name": "_gender",
							"type": "uint8"
						}
					],
					"name": "createUserData",
					"outputs": [],
					"stateMutability": "nonpayable",
					"type": "function"
				},
				{
					"inputs": [],
					"name": "getMyUserData",
					"outputs": [
						{
							"components": [
								{
									"internalType": "string",
									"name": "fullName",
									"type": "string"
								},
								{
									"internalType": "uint256",
									"name": "dateOfBirth",
									"type": "uint256"
								},
								{
									"internalType": "enum UserContract.Gender",
									"name": "gender",
									"type": "uint8"
								}
							],
							"internalType": "struct UserContract.User",
							"name": "",
							"type": "tuple"
						}
					],
					"stateMutability": "view",
					"type": "function"
				},
				{
					"inputs": [
						{
							"internalType": "address",
							"name": "userAddr",
							"type": "address"
						}
					],
					"name": "getOtherUserData",
					"outputs": [
						{
							"components": [
								{
									"internalType": "string",
									"name": "fullName",
									"type": "string"
								},
								{
									"internalType": "uint256",
									"name": "dateOfBirth",
									"type": "uint256"
								},
								{
									"internalType": "enum UserContract.Gender",
									"name": "gender",
									"type": "uint8"
								}
							],
							"internalType": "struct UserContract.User",
							"name": "",
							"type": "tuple"
						}
					],
					"stateMutability": "view",
					"type": "function"
				}
			],
			"devdoc": {
				"kind": "dev",
				"methods": {},
				"version": 1
			},
			"evm": {
				"assembly": "    /* \"Contracts/User.sol\":100:1349  contract UserContract {... */\n  mstore(0x40, 0x80)\n  callvalue\n  dup1\n  iszero\n  tag_1\n  jumpi\n  0x00\n  dup1\n  revert\ntag_1:\n  pop\n  dataSize(sub_0)\n  dup1\n  dataOffset(sub_0)\n  0x00\n  codecopy\n  0x00\n  return\nstop\n\nsub_0: assembly {\n        /* \"Contracts/User.sol\":100:1349  contract UserContract {... */\n      mstore(0x40, 0x80)\n      callvalue\n      dup1\n      iszero\n      tag_1\n      jumpi\n      0x00\n      dup1\n      revert\n    tag_1:\n      pop\n      jumpi(tag_2, lt(calldatasize, 0x04))\n      shr(0xe0, calldataload(0x00))\n      dup1\n      0x091c4553\n      eq\n      tag_3\n      jumpi\n      dup1\n      0x92146b8b\n      eq\n      tag_4\n      jumpi\n      dup1\n      0xd6c390ec\n      eq\n      tag_5\n      jumpi\n    tag_2:\n      0x00\n      dup1\n      revert\n        /* \"Contracts/User.sol\":1104:1346  function getOtherUserData(address userAddr) public view returns (User memory) {... */\n    tag_3:\n      tag_6\n      0x04\n      dup1\n      calldatasize\n      sub\n      dup2\n      add\n      swap1\n      tag_7\n      swap2\n      swap1\n      tag_8\n      jump\t// in\n    tag_7:\n      tag_9\n      jump\t// in\n    tag_6:\n      mload(0x40)\n      tag_10\n      swap2\n      swap1\n      tag_11\n      jump\t// in\n    tag_10:\n      mload(0x40)\n      dup1\n      swap2\n      sub\n      swap1\n      return\n        /* \"Contracts/User.sol\":869:1096  function getMyUserData() public view returns (User memory) {... */\n    tag_4:\n      tag_12\n      tag_13\n      jump\t// in\n    tag_12:\n      mload(0x40)\n      tag_14\n      swap2\n      swap1\n      tag_11\n      jump\t// in\n    tag_14:\n      mload(0x40)\n      dup1\n      swap2\n      sub\n      swap1\n      return\n        /* \"Contracts/User.sol\":333:594  function createUserData(string memory _fullName, uint256 _dateOfBirth, Gender _gender) public {... */\n    tag_5:\n      tag_15\n      0x04\n      dup1\n      calldatasize\n      sub\n      dup2\n      add\n      swap1\n      tag_16\n      swap2\n      swap1\n      tag_17\n      jump\t// in\n    tag_16:\n      tag_18\n      jump\t// in\n    tag_15:\n      stop\n        /* \"Contracts/User.sol\":1104:1346  function getOtherUserData(address userAddr) public view returns (User memory) {... */\n    tag_9:\n        /* \"Contracts/User.sol\":1169:1180  User memory */\n      tag_19\n      tag_20\n      jump\t// in\n    tag_19:\n        /* \"Contracts/User.sol\":1233:1234  0 */\n      0x00\n        /* \"Contracts/User.sol\":1201:1206  users */\n      dup1\n        /* \"Contracts/User.sol\":1201:1218  users[msg.sender] */\n      0x00\n        /* \"Contracts/User.sol\":1207:1217  msg.sender */\n      caller\n        /* \"Contracts/User.sol\":1201:1218  users[msg.sender] */\n      0xffffffffffffffffffffffffffffffffffffffff\n      and\n      0xffffffffffffffffffffffffffffffffffffffff\n      and\n      dup2\n      mstore\n      0x20\n      add\n      swap1\n      dup2\n      mstore\n      0x20\n      add\n      0x00\n      keccak256\n        /* \"Contracts/User.sol\":1201:1230  users[msg.sender].dateOfBirth */\n      0x01\n      add\n      sload\n        /* \"Contracts/User.sol\":1201:1234  users[msg.sender].dateOfBirth > 0 */\n      gt\n        /* \"Contracts/User.sol\":1236:1268  ErrorCodes.ERROR_USER_IS_CREATED */\n      mload(0x40)\n      dup1\n      0x40\n      add\n      0x40\n      mstore\n      dup1\n      0x0f\n      dup2\n      mstore\n      0x20\n      add\n      0x555345525f49535f435245415445440000000000000000000000000000000000\n      dup2\n      mstore\n      pop\n        /* \"Contracts/User.sol\":1193:1269  require(users[msg.sender].dateOfBirth > 0, ErrorCodes.ERROR_USER_IS_CREATED) */\n      swap1\n      tag_22\n      jumpi\n      mload(0x40)\n      0x08c379a000000000000000000000000000000000000000000000000000000000\n      dup2\n      mstore\n      0x04\n      add\n      tag_23\n      swap2\n      swap1\n      tag_24\n      jump\t// in\n    tag_23:\n      mload(0x40)\n      dup1\n      swap2\n      sub\n      swap1\n      revert\n    tag_22:\n      pop\n        /* \"Contracts/User.sol\":1282:1298  User memory user */\n      0x00\n        /* \"Contracts/User.sol\":1301:1306  users */\n      dup1\n        /* \"Contracts/User.sol\":1301:1316  users[userAddr] */\n      0x00\n        /* \"Contracts/User.sol\":1307:1315  userAddr */\n      dup5\n        /* \"Contracts/User.sol\":1301:1316  users[userAddr] */\n      0xffffffffffffffffffffffffffffffffffffffff\n      and\n      0xffffffffffffffffffffffffffffffffffffffff\n      and\n      dup2\n      mstore\n      0x20\n      add\n      swap1\n      dup2\n      mstore\n      0x20\n      add\n      0x00\n      keccak256\n        /* \"Contracts/User.sol\":1282:1316  User memory user = users[userAddr] */\n      mload(0x40)\n      dup1\n      0x60\n      add\n      0x40\n      mstore\n      swap1\n      dup2\n      0x00\n      dup3\n      add\n      dup1\n      sload\n      tag_25\n      swap1\n      tag_26\n      jump\t// in\n    tag_25:\n      dup1\n      0x1f\n      add\n      0x20\n      dup1\n      swap2\n      div\n      mul\n      0x20\n      add\n      mload(0x40)\n      swap1\n      dup2\n      add\n      0x40\n      mstore\n      dup1\n      swap3\n      swap2\n      swap1\n      dup2\n      dup2\n      mstore\n      0x20\n      add\n      dup3\n      dup1\n      sload\n      tag_27\n      swap1\n      tag_26\n      jump\t// in\n    tag_27:\n      dup1\n      iszero\n      tag_28\n      jumpi\n      dup1\n      0x1f\n      lt\n      tag_29\n      jumpi\n      0x0100\n      dup1\n      dup4\n      sload\n      div\n      mul\n      dup4\n      mstore\n      swap2\n      0x20\n      add\n      swap2\n      jump(tag_28)\n    tag_29:\n      dup3\n      add\n      swap2\n      swap1\n      0x00\n      mstore\n      keccak256(0x00, 0x20)\n      swap1\n    tag_30:\n      dup2\n      sload\n      dup2\n      mstore\n      swap1\n      0x01\n      add\n      swap1\n      0x20\n      add\n      dup1\n      dup4\n      gt\n      tag_30\n      jumpi\n      dup3\n      swap1\n      sub\n      0x1f\n      and\n      dup3\n      add\n      swap2\n    tag_28:\n      pop\n      pop\n      pop\n      pop\n      pop\n      dup2\n      mstore\n      0x20\n      add\n      0x01\n      dup3\n      add\n      sload\n      dup2\n      mstore\n      0x20\n      add\n      0x02\n      dup3\n      add\n      0x00\n      swap1\n      sload\n      swap1\n      0x0100\n      exp\n      swap1\n      div\n      0xff\n      and\n      0x02\n      dup2\n      gt\n      iszero\n      tag_31\n      jumpi\n      tag_32\n      tag_33\n      jump\t// in\n    tag_32:\n    tag_31:\n      0x02\n      dup2\n      gt\n      iszero\n      tag_34\n      jumpi\n      tag_35\n      tag_33\n      jump\t// in\n    tag_35:\n    tag_34:\n      dup2\n      mstore\n      pop\n      pop\n      swap1\n      pop\n        /* \"Contracts/User.sol\":1334:1338  user */\n      dup1\n        /* \"Contracts/User.sol\":1327:1338  return user */\n      swap2\n      pop\n      pop\n        /* \"Contracts/User.sol\":1104:1346  function getOtherUserData(address userAddr) public view returns (User memory) {... */\n      swap2\n      swap1\n      pop\n      jump\t// out\n        /* \"Contracts/User.sol\":869:1096  function getMyUserData() public view returns (User memory) {... */\n    tag_13:\n        /* \"Contracts/User.sol\":915:926  User memory */\n      tag_36\n      tag_20\n      jump\t// in\n    tag_36:\n        /* \"Contracts/User.sol\":979:980  0 */\n      0x00\n        /* \"Contracts/User.sol\":947:952  users */\n      dup1\n        /* \"Contracts/User.sol\":947:964  users[msg.sender] */\n      0x00\n        /* \"Contracts/User.sol\":953:963  msg.sender */\n      caller\n        /* \"Contracts/User.sol\":947:964  users[msg.sender] */\n      0xffffffffffffffffffffffffffffffffffffffff\n      and\n      0xffffffffffffffffffffffffffffffffffffffff\n      and\n      dup2\n      mstore\n      0x20\n      add\n      swap1\n      dup2\n      mstore\n      0x20\n      add\n      0x00\n      keccak256\n        /* \"Contracts/User.sol\":947:976  users[msg.sender].dateOfBirth */\n      0x01\n      add\n      sload\n        /* \"Contracts/User.sol\":947:980  users[msg.sender].dateOfBirth > 0 */\n      gt\n        /* \"Contracts/User.sol\":982:1016  ErrorCodes.ERROR_USER_IS_NOT_FOUND */\n      mload(0x40)\n      dup1\n      0x40\n      add\n      0x40\n      mstore\n      dup1\n      0x11\n      dup2\n      mstore\n      0x20\n      add\n      0x555345525f49535f4e4f545f464f554e44000000000000000000000000000000\n      dup2\n      mstore\n      pop\n        /* \"Contracts/User.sol\":939:1017  require(users[msg.sender].dateOfBirth > 0, ErrorCodes.ERROR_USER_IS_NOT_FOUND) */\n      swap1\n      tag_38\n      jumpi\n      mload(0x40)\n      0x08c379a000000000000000000000000000000000000000000000000000000000\n      dup2\n      mstore\n      0x04\n      add\n      tag_39\n      swap2\n      swap1\n      tag_24\n      jump\t// in\n    tag_39:\n      mload(0x40)\n      dup1\n      swap2\n      sub\n      swap1\n      revert\n    tag_38:\n      pop\n        /* \"Contracts/User.sol\":1030:1046  User memory user */\n      0x00\n        /* \"Contracts/User.sol\":1049:1054  users */\n      dup1\n        /* \"Contracts/User.sol\":1049:1066  users[msg.sender] */\n      0x00\n        /* \"Contracts/User.sol\":1055:1065  msg.sender */\n      caller\n        /* \"Contracts/User.sol\":1049:1066  users[msg.sender] */\n      0xffffffffffffffffffffffffffffffffffffffff\n      and\n      0xffffffffffffffffffffffffffffffffffffffff\n      and\n      dup2\n      mstore\n      0x20\n      add\n      swap1\n      dup2\n      mstore\n      0x20\n      add\n      0x00\n      keccak256\n        /* \"Contracts/User.sol\":1030:1066  User memory user = users[msg.sender] */\n      mload(0x40)\n      dup1\n      0x60\n      add\n      0x40\n      mstore\n      swap1\n      dup2\n      0x00\n      dup3\n      add\n      dup1\n      sload\n      tag_40\n      swap1\n      tag_26\n      jump\t// in\n    tag_40:\n      dup1\n      0x1f\n      add\n      0x20\n      dup1\n      swap2\n      div\n      mul\n      0x20\n      add\n      mload(0x40)\n      swap1\n      dup2\n      add\n      0x40\n      mstore\n      dup1\n      swap3\n      swap2\n      swap1\n      dup2\n      dup2\n      mstore\n      0x20\n      add\n      dup3\n      dup1\n      sload\n      tag_41\n      swap1\n      tag_26\n      jump\t// in\n    tag_41:\n      dup1\n      iszero\n      tag_42\n      jumpi\n      dup1\n      0x1f\n      lt\n      tag_43\n      jumpi\n      0x0100\n      dup1\n      dup4\n      sload\n      div\n      mul\n      dup4\n      mstore\n      swap2\n      0x20\n      add\n      swap2\n      jump(tag_42)\n    tag_43:\n      dup3\n      add\n      swap2\n      swap1\n      0x00\n      mstore\n      keccak256(0x00, 0x20)\n      swap1\n    tag_44:\n      dup2\n      sload\n      dup2\n      mstore\n      swap1\n      0x01\n      add\n      swap1\n      0x20\n      add\n      dup1\n      dup4\n      gt\n      tag_44\n      jumpi\n      dup3\n      swap1\n      sub\n      0x1f\n      and\n      dup3\n      add\n      swap2\n    tag_42:\n      pop\n      pop\n      pop\n      pop\n      pop\n      dup2\n      mstore\n      0x20\n      add\n      0x01\n      dup3\n      add\n      sload\n      dup2\n      mstore\n      0x20\n      add\n      0x02\n      dup3\n      add\n      0x00\n      swap1\n      sload\n      swap1\n      0x0100\n      exp\n      swap1\n      div\n      0xff\n      and\n      0x02\n      dup2\n      gt\n      iszero\n      tag_45\n      jumpi\n      tag_46\n      tag_33\n      jump\t// in\n    tag_46:\n    tag_45:\n      0x02\n      dup2\n      gt\n      iszero\n      tag_47\n      jumpi\n      tag_48\n      tag_33\n      jump\t// in\n    tag_48:\n    tag_47:\n      dup2\n      mstore\n      pop\n      pop\n      swap1\n      pop\n        /* \"Contracts/User.sol\":1084:1088  user */\n      dup1\n        /* \"Contracts/User.sol\":1077:1088  return user */\n      swap2\n      pop\n      pop\n        /* \"Contracts/User.sol\":869:1096  function getMyUserData() public view returns (User memory) {... */\n      swap1\n      jump\t// out\n        /* \"Contracts/User.sol\":333:594  function createUserData(string memory _fullName, uint256 _dateOfBirth, Gender _gender) public {... */\n    tag_18:\n        /* \"Contracts/User.sol\":479:480  0 */\n      0x00\n        /* \"Contracts/User.sol\":446:451  users */\n      dup1\n        /* \"Contracts/User.sol\":446:463  users[msg.sender] */\n      0x00\n        /* \"Contracts/User.sol\":452:462  msg.sender */\n      caller\n        /* \"Contracts/User.sol\":446:463  users[msg.sender] */\n      0xffffffffffffffffffffffffffffffffffffffff\n      and\n      0xffffffffffffffffffffffffffffffffffffffff\n      and\n      dup2\n      mstore\n      0x20\n      add\n      swap1\n      dup2\n      mstore\n      0x20\n      add\n      0x00\n      keccak256\n        /* \"Contracts/User.sol\":446:475  users[msg.sender].dateOfBirth */\n      0x01\n      add\n      sload\n        /* \"Contracts/User.sol\":446:480  users[msg.sender].dateOfBirth == 0 */\n      eq\n        /* \"Contracts/User.sol\":482:516  ErrorCodes.ERROR_USER_IS_NOT_FOUND */\n      mload(0x40)\n      dup1\n      0x40\n      add\n      0x40\n      mstore\n      dup1\n      0x11\n      dup2\n      mstore\n      0x20\n      add\n      0x555345525f49535f4e4f545f464f554e44000000000000000000000000000000\n      dup2\n      mstore\n      pop\n        /* \"Contracts/User.sol\":438:517  require(users[msg.sender].dateOfBirth == 0, ErrorCodes.ERROR_USER_IS_NOT_FOUND) */\n      swap1\n      tag_50\n      jumpi\n      mload(0x40)\n      0x08c379a000000000000000000000000000000000000000000000000000000000\n      dup2\n      mstore\n      0x04\n      add\n      tag_51\n      swap2\n      swap1\n      tag_24\n      jump\t// in\n    tag_51:\n      mload(0x40)\n      dup1\n      swap2\n      sub\n      swap1\n      revert\n    tag_50:\n      pop\n        /* \"Contracts/User.sol\":548:586  User(_fullName, _dateOfBirth, _gender) */\n      mload(0x40)\n      dup1\n      0x60\n      add\n      0x40\n      mstore\n      dup1\n        /* \"Contracts/User.sol\":553:562  _fullName */\n      dup5\n        /* \"Contracts/User.sol\":548:586  User(_fullName, _dateOfBirth, _gender) */\n      dup2\n      mstore\n      0x20\n      add\n        /* \"Contracts/User.sol\":564:576  _dateOfBirth */\n      dup4\n        /* \"Contracts/User.sol\":548:586  User(_fullName, _dateOfBirth, _gender) */\n      dup2\n      mstore\n      0x20\n      add\n        /* \"Contracts/User.sol\":578:585  _gender */\n      dup3\n        /* \"Contracts/User.sol\":548:586  User(_fullName, _dateOfBirth, _gender) */\n      0x02\n      dup2\n      gt\n      iszero\n      tag_52\n      jumpi\n      tag_53\n      tag_33\n      jump\t// in\n    tag_53:\n    tag_52:\n      dup2\n      mstore\n      pop\n        /* \"Contracts/User.sol\":528:533  users */\n      0x00\n        /* \"Contracts/User.sol\":528:545  users[msg.sender] */\n      dup1\n        /* \"Contracts/User.sol\":534:544  msg.sender */\n      caller\n        /* \"Contracts/User.sol\":528:545  users[msg.sender] */\n      0xffffffffffffffffffffffffffffffffffffffff\n      and\n      0xffffffffffffffffffffffffffffffffffffffff\n      and\n      dup2\n      mstore\n      0x20\n      add\n      swap1\n      dup2\n      mstore\n      0x20\n      add\n      0x00\n      keccak256\n        /* \"Contracts/User.sol\":528:586  users[msg.sender] = User(_fullName, _dateOfBirth, _gender) */\n      0x00\n      dup3\n      add\n      mload\n      dup2\n      0x00\n      add\n      swap1\n      dup2\n      tag_54\n      swap2\n      swap1\n      tag_55\n      jump\t// in\n    tag_54:\n      pop\n      0x20\n      dup3\n      add\n      mload\n      dup2\n      0x01\n      add\n      sstore\n      0x40\n      dup3\n      add\n      mload\n      dup2\n      0x02\n      add\n      exp(0x0100, 0x00)\n      dup2\n      sload\n      dup2\n      0xff\n      mul\n      not\n      and\n      swap1\n      dup4\n      0x02\n      dup2\n      gt\n      iszero\n      tag_56\n      jumpi\n      tag_57\n      tag_33\n      jump\t// in\n    tag_57:\n    tag_56:\n      mul\n      or\n      swap1\n      sstore\n      pop\n      swap1\n      pop\n      pop\n        /* \"Contracts/User.sol\":333:594  function createUserData(string memory _fullName, uint256 _dateOfBirth, Gender _gender) public {... */\n      pop\n      pop\n      pop\n      jump\t// out\n    tag_20:\n      mload(0x40)\n      dup1\n      0x60\n      add\n      0x40\n      mstore\n      dup1\n      0x60\n      dup2\n      mstore\n      0x20\n      add\n      0x00\n      dup2\n      mstore\n      0x20\n      add\n      0x00\n      0x02\n      dup2\n      gt\n      iszero\n      tag_58\n      jumpi\n      tag_59\n      tag_33\n      jump\t// in\n    tag_59:\n    tag_58:\n      dup2\n      mstore\n      pop\n      swap1\n      jump\t// out\n        /* \"#utility.yul\":7:82   */\n    tag_60:\n        /* \"#utility.yul\":40:46   */\n      0x00\n        /* \"#utility.yul\":73:75   */\n      0x40\n        /* \"#utility.yul\":67:76   */\n      mload\n        /* \"#utility.yul\":57:76   */\n      swap1\n      pop\n        /* \"#utility.yul\":7:82   */\n      swap1\n      jump\t// out\n        /* \"#utility.yul\":88:205   */\n    tag_61:\n        /* \"#utility.yul\":197:198   */\n      0x00\n        /* \"#utility.yul\":194:195   */\n      dup1\n        /* \"#utility.yul\":187:199   */\n      revert\n        /* \"#utility.yul\":211:328   */\n    tag_62:\n        /* \"#utility.yul\":320:321   */\n      0x00\n        /* \"#utility.yul\":317:318   */\n      dup1\n        /* \"#utility.yul\":310:322   */\n      revert\n        /* \"#utility.yul\":334:460   */\n    tag_63:\n        /* \"#utility.yul\":371:378   */\n      0x00\n        /* \"#utility.yul\":411:453   */\n      0xffffffffffffffffffffffffffffffffffffffff\n        /* \"#utility.yul\":404:409   */\n      dup3\n        /* \"#utility.yul\":400:454   */\n      and\n        /* \"#utility.yul\":389:454   */\n      swap1\n      pop\n        /* \"#utility.yul\":334:460   */\n      swap2\n      swap1\n      pop\n      jump\t// out\n        /* \"#utility.yul\":466:562   */\n    tag_64:\n        /* \"#utility.yul\":503:510   */\n      0x00\n        /* \"#utility.yul\":532:556   */\n      tag_116\n        /* \"#utility.yul\":550:555   */\n      dup3\n        /* \"#utility.yul\":532:556   */\n      tag_63\n      jump\t// in\n    tag_116:\n        /* \"#utility.yul\":521:556   */\n      swap1\n      pop\n        /* \"#utility.yul\":466:562   */\n      swap2\n      swap1\n      pop\n      jump\t// out\n        /* \"#utility.yul\":568:690   */\n    tag_65:\n        /* \"#utility.yul\":641:665   */\n      tag_118\n        /* \"#utility.yul\":659:664   */\n      dup2\n        /* \"#utility.yul\":641:665   */\n      tag_64\n      jump\t// in\n    tag_118:\n        /* \"#utility.yul\":634:639   */\n      dup2\n        /* \"#utility.yul\":631:666   */\n      eq\n        /* \"#utility.yul\":621:684   */\n      tag_119\n      jumpi\n        /* \"#utility.yul\":680:681   */\n      0x00\n        /* \"#utility.yul\":677:678   */\n      dup1\n        /* \"#utility.yul\":670:682   */\n      revert\n        /* \"#utility.yul\":621:684   */\n    tag_119:\n        /* \"#utility.yul\":568:690   */\n      pop\n      jump\t// out\n        /* \"#utility.yul\":696:835   */\n    tag_66:\n        /* \"#utility.yul\":742:747   */\n      0x00\n        /* \"#utility.yul\":780:786   */\n      dup2\n        /* \"#utility.yul\":767:787   */\n      calldataload\n        /* \"#utility.yul\":758:787   */\n      swap1\n      pop\n        /* \"#utility.yul\":796:829   */\n      tag_121\n        /* \"#utility.yul\":823:828   */\n      dup2\n        /* \"#utility.yul\":796:829   */\n      tag_65\n      jump\t// in\n    tag_121:\n        /* \"#utility.yul\":696:835   */\n      swap3\n      swap2\n      pop\n      pop\n      jump\t// out\n        /* \"#utility.yul\":841:1170   */\n    tag_8:\n        /* \"#utility.yul\":900:906   */\n      0x00\n        /* \"#utility.yul\":949:951   */\n      0x20\n        /* \"#utility.yul\":937:946   */\n      dup3\n        /* \"#utility.yul\":928:935   */\n      dup5\n        /* \"#utility.yul\":924:947   */\n      sub\n        /* \"#utility.yul\":920:952   */\n      slt\n        /* \"#utility.yul\":917:1036   */\n      iszero\n      tag_123\n      jumpi\n        /* \"#utility.yul\":955:1034   */\n      tag_124\n      tag_61\n      jump\t// in\n    tag_124:\n        /* \"#utility.yul\":917:1036   */\n    tag_123:\n        /* \"#utility.yul\":1075:1076   */\n      0x00\n        /* \"#utility.yul\":1100:1153   */\n      tag_125\n        /* \"#utility.yul\":1145:1152   */\n      dup5\n        /* \"#utility.yul\":1136:1142   */\n      dup3\n        /* \"#utility.yul\":1125:1134   */\n      dup6\n        /* \"#utility.yul\":1121:1143   */\n      add\n        /* \"#utility.yul\":1100:1153   */\n      tag_66\n      jump\t// in\n    tag_125:\n        /* \"#utility.yul\":1090:1153   */\n      swap2\n      pop\n        /* \"#utility.yul\":1046:1163   */\n      pop\n        /* \"#utility.yul\":841:1170   */\n      swap3\n      swap2\n      pop\n      pop\n      jump\t// out\n        /* \"#utility.yul\":1176:1275   */\n    tag_67:\n        /* \"#utility.yul\":1228:1234   */\n      0x00\n        /* \"#utility.yul\":1262:1267   */\n      dup2\n        /* \"#utility.yul\":1256:1268   */\n      mload\n        /* \"#utility.yul\":1246:1268   */\n      swap1\n      pop\n        /* \"#utility.yul\":1176:1275   */\n      swap2\n      swap1\n      pop\n      jump\t// out\n        /* \"#utility.yul\":1281:1440   */\n    tag_68:\n        /* \"#utility.yul\":1355:1366   */\n      0x00\n        /* \"#utility.yul\":1389:1395   */\n      dup3\n        /* \"#utility.yul\":1384:1387   */\n      dup3\n        /* \"#utility.yul\":1377:1396   */\n      mstore\n        /* \"#utility.yul\":1429:1433   */\n      0x20\n        /* \"#utility.yul\":1424:1427   */\n      dup3\n        /* \"#utility.yul\":1420:1434   */\n      add\n        /* \"#utility.yul\":1405:1434   */\n      swap1\n      pop\n        /* \"#utility.yul\":1281:1440   */\n      swap3\n      swap2\n      pop\n      pop\n      jump\t// out\n        /* \"#utility.yul\":1446:1585   */\n    tag_69:\n        /* \"#utility.yul\":1535:1541   */\n      dup3\n        /* \"#utility.yul\":1530:1533   */\n      dup2\n        /* \"#utility.yul\":1525:1528   */\n      dup4\n        /* \"#utility.yul\":1519:1542   */\n      mcopy\n        /* \"#utility.yul\":1576:1577   */\n      0x00\n        /* \"#utility.yul\":1567:1573   */\n      dup4\n        /* \"#utility.yul\":1562:1565   */\n      dup4\n        /* \"#utility.yul\":1558:1574   */\n      add\n        /* \"#utility.yul\":1551:1578   */\n      mstore\n        /* \"#utility.yul\":1446:1585   */\n      pop\n      pop\n      pop\n      jump\t// out\n        /* \"#utility.yul\":1591:1693   */\n    tag_70:\n        /* \"#utility.yul\":1632:1638   */\n      0x00\n        /* \"#utility.yul\":1683:1685   */\n      0x1f\n        /* \"#utility.yul\":1679:1686   */\n      not\n        /* \"#utility.yul\":1674:1676   */\n      0x1f\n        /* \"#utility.yul\":1667:1672   */\n      dup4\n        /* \"#utility.yul\":1663:1677   */\n      add\n        /* \"#utility.yul\":1659:1687   */\n      and\n        /* \"#utility.yul\":1649:1687   */\n      swap1\n      pop\n        /* \"#utility.yul\":1591:1693   */\n      swap2\n      swap1\n      pop\n      jump\t// out\n        /* \"#utility.yul\":1699:2056   */\n    tag_71:\n        /* \"#utility.yul\":1777:1780   */\n      0x00\n        /* \"#utility.yul\":1805:1844   */\n      tag_131\n        /* \"#utility.yul\":1838:1843   */\n      dup3\n        /* \"#utility.yul\":1805:1844   */\n      tag_67\n      jump\t// in\n    tag_131:\n        /* \"#utility.yul\":1860:1921   */\n      tag_132\n        /* \"#utility.yul\":1914:1920   */\n      dup2\n        /* \"#utility.yul\":1909:1912   */\n      dup6\n        /* \"#utility.yul\":1860:1921   */\n      tag_68\n      jump\t// in\n    tag_132:\n        /* \"#utility.yul\":1853:1921   */\n      swap4\n      pop\n        /* \"#utility.yul\":1930:1995   */\n      tag_133\n        /* \"#utility.yul\":1988:1994   */\n      dup2\n        /* \"#utility.yul\":1983:1986   */\n      dup6\n        /* \"#utility.yul\":1976:1980   */\n      0x20\n        /* \"#utility.yul\":1969:1974   */\n      dup7\n        /* \"#utility.yul\":1965:1981   */\n      add\n        /* \"#utility.yul\":1930:1995   */\n      tag_69\n      jump\t// in\n    tag_133:\n        /* \"#utility.yul\":2020:2049   */\n      tag_134\n        /* \"#utility.yul\":2042:2048   */\n      dup2\n        /* \"#utility.yul\":2020:2049   */\n      tag_70\n      jump\t// in\n    tag_134:\n        /* \"#utility.yul\":2015:2018   */\n      dup5\n        /* \"#utility.yul\":2011:2050   */\n      add\n        /* \"#utility.yul\":2004:2050   */\n      swap2\n      pop\n        /* \"#utility.yul\":1781:2056   */\n      pop\n        /* \"#utility.yul\":1699:2056   */\n      swap3\n      swap2\n      pop\n      pop\n      jump\t// out\n        /* \"#utility.yul\":2062:2139   */\n    tag_72:\n        /* \"#utility.yul\":2099:2106   */\n      0x00\n        /* \"#utility.yul\":2128:2133   */\n      dup2\n        /* \"#utility.yul\":2117:2133   */\n      swap1\n      pop\n        /* \"#utility.yul\":2062:2139   */\n      swap2\n      swap1\n      pop\n      jump\t// out\n        /* \"#utility.yul\":2145:2253   */\n    tag_73:\n        /* \"#utility.yul\":2222:2246   */\n      tag_137\n        /* \"#utility.yul\":2240:2245   */\n      dup2\n        /* \"#utility.yul\":2222:2246   */\n      tag_72\n      jump\t// in\n    tag_137:\n        /* \"#utility.yul\":2217:2220   */\n      dup3\n        /* \"#utility.yul\":2210:2247   */\n      mstore\n        /* \"#utility.yul\":2145:2253   */\n      pop\n      pop\n      jump\t// out\n        /* \"#utility.yul\":2259:2439   */\n    tag_33:\n        /* \"#utility.yul\":2307:2384   */\n      0x4e487b7100000000000000000000000000000000000000000000000000000000\n        /* \"#utility.yul\":2304:2305   */\n      0x00\n        /* \"#utility.yul\":2297:2385   */\n      mstore\n        /* \"#utility.yul\":2404:2408   */\n      0x21\n        /* \"#utility.yul\":2401:2402   */\n      0x04\n        /* \"#utility.yul\":2394:2409   */\n      mstore\n        /* \"#utility.yul\":2428:2432   */\n      0x24\n        /* \"#utility.yul\":2425:2426   */\n      0x00\n        /* \"#utility.yul\":2418:2433   */\n      revert\n        /* \"#utility.yul\":2445:2559   */\n    tag_74:\n        /* \"#utility.yul\":2527:2528   */\n      0x03\n        /* \"#utility.yul\":2520:2525   */\n      dup2\n        /* \"#utility.yul\":2517:2529   */\n      lt\n        /* \"#utility.yul\":2507:2553   */\n      tag_140\n      jumpi\n        /* \"#utility.yul\":2533:2551   */\n      tag_141\n      tag_33\n      jump\t// in\n    tag_141:\n        /* \"#utility.yul\":2507:2553   */\n    tag_140:\n        /* \"#utility.yul\":2445:2559   */\n      pop\n      jump\t// out\n        /* \"#utility.yul\":2565:2694   */\n    tag_75:\n        /* \"#utility.yul\":2611:2618   */\n      0x00\n        /* \"#utility.yul\":2640:2645   */\n      dup2\n        /* \"#utility.yul\":2629:2645   */\n      swap1\n      pop\n        /* \"#utility.yul\":2646:2688   */\n      tag_143\n        /* \"#utility.yul\":2682:2687   */\n      dup3\n        /* \"#utility.yul\":2646:2688   */\n      tag_74\n      jump\t// in\n    tag_143:\n        /* \"#utility.yul\":2565:2694   */\n      swap2\n      swap1\n      pop\n      jump\t// out\n        /* \"#utility.yul\":2700:2829   */\n    tag_76:\n        /* \"#utility.yul\":2757:2766   */\n      0x00\n        /* \"#utility.yul\":2790:2823   */\n      tag_145\n        /* \"#utility.yul\":2817:2822   */\n      dup3\n        /* \"#utility.yul\":2790:2823   */\n      tag_75\n      jump\t// in\n    tag_145:\n        /* \"#utility.yul\":2777:2823   */\n      swap1\n      pop\n        /* \"#utility.yul\":2700:2829   */\n      swap2\n      swap1\n      pop\n      jump\t// out\n        /* \"#utility.yul\":2835:2970   */\n    tag_77:\n        /* \"#utility.yul\":2919:2963   */\n      tag_147\n        /* \"#utility.yul\":2957:2962   */\n      dup2\n        /* \"#utility.yul\":2919:2963   */\n      tag_76\n      jump\t// in\n    tag_147:\n        /* \"#utility.yul\":2914:2917   */\n      dup3\n        /* \"#utility.yul\":2907:2964   */\n      mstore\n        /* \"#utility.yul\":2835:2970   */\n      pop\n      pop\n      jump\t// out\n        /* \"#utility.yul\":3036:3826   */\n    tag_78:\n        /* \"#utility.yul\":3145:3148   */\n      0x00\n        /* \"#utility.yul\":3181:3185   */\n      0x60\n        /* \"#utility.yul\":3176:3179   */\n      dup4\n        /* \"#utility.yul\":3172:3186   */\n      add\n        /* \"#utility.yul\":3272:3276   */\n      0x00\n        /* \"#utility.yul\":3265:3270   */\n      dup4\n        /* \"#utility.yul\":3261:3277   */\n      add\n        /* \"#utility.yul\":3255:3278   */\n      mload\n        /* \"#utility.yul\":3325:3328   */\n      dup5\n        /* \"#utility.yul\":3319:3323   */\n      dup3\n        /* \"#utility.yul\":3315:3329   */\n      sub\n        /* \"#utility.yul\":3308:3312   */\n      0x00\n        /* \"#utility.yul\":3303:3306   */\n      dup7\n        /* \"#utility.yul\":3299:3313   */\n      add\n        /* \"#utility.yul\":3292:3330   */\n      mstore\n        /* \"#utility.yul\":3351:3424   */\n      tag_149\n        /* \"#utility.yul\":3419:3423   */\n      dup3\n        /* \"#utility.yul\":3405:3417   */\n      dup3\n        /* \"#utility.yul\":3351:3424   */\n      tag_71\n      jump\t// in\n    tag_149:\n        /* \"#utility.yul\":3343:3424   */\n      swap2\n      pop\n        /* \"#utility.yul\":3196:3435   */\n      pop\n        /* \"#utility.yul\":3524:3528   */\n      0x20\n        /* \"#utility.yul\":3517:3522   */\n      dup4\n        /* \"#utility.yul\":3513:3529   */\n      add\n        /* \"#utility.yul\":3507:3530   */\n      mload\n        /* \"#utility.yul\":3543:3606   */\n      tag_150\n        /* \"#utility.yul\":3600:3604   */\n      0x20\n        /* \"#utility.yul\":3595:3598   */\n      dup7\n        /* \"#utility.yul\":3591:3605   */\n      add\n        /* \"#utility.yul\":3577:3589   */\n      dup3\n        /* \"#utility.yul\":3543:3606   */\n      tag_73\n      jump\t// in\n    tag_150:\n        /* \"#utility.yul\":3445:3616   */\n      pop\n        /* \"#utility.yul\":3700:3704   */\n      0x40\n        /* \"#utility.yul\":3693:3698   */\n      dup4\n        /* \"#utility.yul\":3689:3705   */\n      add\n        /* \"#utility.yul\":3683:3706   */\n      mload\n        /* \"#utility.yul\":3719:3789   */\n      tag_151\n        /* \"#utility.yul\":3783:3787   */\n      0x40\n        /* \"#utility.yul\":3778:3781   */\n      dup7\n        /* \"#utility.yul\":3774:3788   */\n      add\n        /* \"#utility.yul\":3760:3772   */\n      dup3\n        /* \"#utility.yul\":3719:3789   */\n      tag_77\n      jump\t// in\n    tag_151:\n        /* \"#utility.yul\":3626:3799   */\n      pop\n        /* \"#utility.yul\":3816:3820   */\n      dup1\n        /* \"#utility.yul\":3809:3820   */\n      swap2\n      pop\n        /* \"#utility.yul\":3150:3826   */\n      pop\n        /* \"#utility.yul\":3036:3826   */\n      swap3\n      swap2\n      pop\n      pop\n      jump\t// out\n        /* \"#utility.yul\":3832:4185   */\n    tag_11:\n        /* \"#utility.yul\":3965:3969   */\n      0x00\n        /* \"#utility.yul\":4003:4005   */\n      0x20\n        /* \"#utility.yul\":3992:4001   */\n      dup3\n        /* \"#utility.yul\":3988:4006   */\n      add\n        /* \"#utility.yul\":3980:4006   */\n      swap1\n      pop\n        /* \"#utility.yul\":4052:4061   */\n      dup2\n        /* \"#utility.yul\":4046:4050   */\n      dup2\n        /* \"#utility.yul\":4042:4062   */\n      sub\n        /* \"#utility.yul\":4038:4039   */\n      0x00\n        /* \"#utility.yul\":4027:4036   */\n      dup4\n        /* \"#utility.yul\":4023:4040   */\n      add\n        /* \"#utility.yul\":4016:4063   */\n      mstore\n        /* \"#utility.yul\":4080:4178   */\n      tag_153\n        /* \"#utility.yul\":4173:4177   */\n      dup2\n        /* \"#utility.yul\":4164:4170   */\n      dup5\n        /* \"#utility.yul\":4080:4178   */\n      tag_78\n      jump\t// in\n    tag_153:\n        /* \"#utility.yul\":4072:4178   */\n      swap1\n      pop\n        /* \"#utility.yul\":3832:4185   */\n      swap3\n      swap2\n      pop\n      pop\n      jump\t// out\n        /* \"#utility.yul\":4191:4308   */\n    tag_79:\n        /* \"#utility.yul\":4300:4301   */\n      0x00\n        /* \"#utility.yul\":4297:4298   */\n      dup1\n        /* \"#utility.yul\":4290:4302   */\n      revert\n        /* \"#utility.yul\":4314:4431   */\n    tag_80:\n        /* \"#utility.yul\":4423:4424   */\n      0x00\n        /* \"#utility.yul\":4420:4421   */\n      dup1\n        /* \"#utility.yul\":4413:4425   */\n      revert\n        /* \"#utility.yul\":4437:4617   */\n    tag_81:\n        /* \"#utility.yul\":4485:4562   */\n      0x4e487b7100000000000000000000000000000000000000000000000000000000\n        /* \"#utility.yul\":4482:4483   */\n      0x00\n        /* \"#utility.yul\":4475:4563   */\n      mstore\n        /* \"#utility.yul\":4582:4586   */\n      0x41\n        /* \"#utility.yul\":4579:4580   */\n      0x04\n        /* \"#utility.yul\":4572:4587   */\n      mstore\n        /* \"#utility.yul\":4606:4610   */\n      0x24\n        /* \"#utility.yul\":4603:4604   */\n      0x00\n        /* \"#utility.yul\":4596:4611   */\n      revert\n        /* \"#utility.yul\":4623:4904   */\n    tag_82:\n        /* \"#utility.yul\":4706:4733   */\n      tag_158\n        /* \"#utility.yul\":4728:4732   */\n      dup3\n        /* \"#utility.yul\":4706:4733   */\n      tag_70\n      jump\t// in\n    tag_158:\n        /* \"#utility.yul\":4698:4704   */\n      dup2\n        /* \"#utility.yul\":4694:4734   */\n      add\n        /* \"#utility.yul\":4836:4842   */\n      dup2\n        /* \"#utility.yul\":4824:4834   */\n      dup2\n        /* \"#utility.yul\":4821:4843   */\n      lt\n        /* \"#utility.yul\":4800:4818   */\n      0xffffffffffffffff\n        /* \"#utility.yul\":4788:4798   */\n      dup3\n        /* \"#utility.yul\":4785:4819   */\n      gt\n        /* \"#utility.yul\":4782:4844   */\n      or\n        /* \"#utility.yul\":4779:4867   */\n      iszero\n      tag_159\n      jumpi\n        /* \"#utility.yul\":4847:4865   */\n      tag_160\n      tag_81\n      jump\t// in\n    tag_160:\n        /* \"#utility.yul\":4779:4867   */\n    tag_159:\n        /* \"#utility.yul\":4887:4897   */\n      dup1\n        /* \"#utility.yul\":4883:4885   */\n      0x40\n        /* \"#utility.yul\":4876:4898   */\n      mstore\n        /* \"#utility.yul\":4666:4904   */\n      pop\n        /* \"#utility.yul\":4623:4904   */\n      pop\n      pop\n      jump\t// out\n        /* \"#utility.yul\":4910:5039   */\n    tag_83:\n        /* \"#utility.yul\":4944:4950   */\n      0x00\n        /* \"#utility.yul\":4971:4991   */\n      tag_162\n      tag_60\n      jump\t// in\n    tag_162:\n        /* \"#utility.yul\":4961:4991   */\n      swap1\n      pop\n        /* \"#utility.yul\":5000:5033   */\n      tag_163\n        /* \"#utility.yul\":5028:5032   */\n      dup3\n        /* \"#utility.yul\":5020:5026   */\n      dup3\n        /* \"#utility.yul\":5000:5033   */\n      tag_82\n      jump\t// in\n    tag_163:\n        /* \"#utility.yul\":4910:5039   */\n      swap2\n      swap1\n      pop\n      jump\t// out\n        /* \"#utility.yul\":5045:5353   */\n    tag_84:\n        /* \"#utility.yul\":5107:5111   */\n      0x00\n        /* \"#utility.yul\":5197:5215   */\n      0xffffffffffffffff\n        /* \"#utility.yul\":5189:5195   */\n      dup3\n        /* \"#utility.yul\":5186:5216   */\n      gt\n        /* \"#utility.yul\":5183:5239   */\n      iszero\n      tag_165\n      jumpi\n        /* \"#utility.yul\":5219:5237   */\n      tag_166\n      tag_81\n      jump\t// in\n    tag_166:\n        /* \"#utility.yul\":5183:5239   */\n    tag_165:\n        /* \"#utility.yul\":5257:5286   */\n      tag_167\n        /* \"#utility.yul\":5279:5285   */\n      dup3\n        /* \"#utility.yul\":5257:5286   */\n      tag_70\n      jump\t// in\n    tag_167:\n        /* \"#utility.yul\":5249:5286   */\n      swap1\n      pop\n        /* \"#utility.yul\":5341:5345   */\n      0x20\n        /* \"#utility.yul\":5335:5339   */\n      dup2\n        /* \"#utility.yul\":5331:5346   */\n      add\n        /* \"#utility.yul\":5323:5346   */\n      swap1\n      pop\n        /* \"#utility.yul\":5045:5353   */\n      swap2\n      swap1\n      pop\n      jump\t// out\n        /* \"#utility.yul\":5359:5507   */\n    tag_85:\n        /* \"#utility.yul\":5457:5463   */\n      dup3\n        /* \"#utility.yul\":5452:5455   */\n      dup2\n        /* \"#utility.yul\":5447:5450   */\n      dup4\n        /* \"#utility.yul\":5434:5464   */\n      calldatacopy\n        /* \"#utility.yul\":5498:5499   */\n      0x00\n        /* \"#utility.yul\":5489:5495   */\n      dup4\n        /* \"#utility.yul\":5484:5487   */\n      dup4\n        /* \"#utility.yul\":5480:5496   */\n      add\n        /* \"#utility.yul\":5473:5500   */\n      mstore\n        /* \"#utility.yul\":5359:5507   */\n      pop\n      pop\n      pop\n      jump\t// out\n        /* \"#utility.yul\":5513:5938   */\n    tag_86:\n        /* \"#utility.yul\":5591:5596   */\n      0x00\n        /* \"#utility.yul\":5616:5682   */\n      tag_170\n        /* \"#utility.yul\":5632:5681   */\n      tag_171\n        /* \"#utility.yul\":5674:5680   */\n      dup5\n        /* \"#utility.yul\":5632:5681   */\n      tag_84\n      jump\t// in\n    tag_171:\n        /* \"#utility.yul\":5616:5682   */\n      tag_83\n      jump\t// in\n    tag_170:\n        /* \"#utility.yul\":5607:5682   */\n      swap1\n      pop\n        /* \"#utility.yul\":5705:5711   */\n      dup3\n        /* \"#utility.yul\":5698:5703   */\n      dup2\n        /* \"#utility.yul\":5691:5712   */\n      mstore\n        /* \"#utility.yul\":5743:5747   */\n      0x20\n        /* \"#utility.yul\":5736:5741   */\n      dup2\n        /* \"#utility.yul\":5732:5748   */\n      add\n        /* \"#utility.yul\":5781:5784   */\n      dup5\n        /* \"#utility.yul\":5772:5778   */\n      dup5\n        /* \"#utility.yul\":5767:5770   */\n      dup5\n        /* \"#utility.yul\":5763:5779   */\n      add\n        /* \"#utility.yul\":5760:5785   */\n      gt\n        /* \"#utility.yul\":5757:5869   */\n      iszero\n      tag_172\n      jumpi\n        /* \"#utility.yul\":5788:5867   */\n      tag_173\n      tag_80\n      jump\t// in\n    tag_173:\n        /* \"#utility.yul\":5757:5869   */\n    tag_172:\n        /* \"#utility.yul\":5878:5932   */\n      tag_174\n        /* \"#utility.yul\":5925:5931   */\n      dup5\n        /* \"#utility.yul\":5920:5923   */\n      dup3\n        /* \"#utility.yul\":5915:5918   */\n      dup6\n        /* \"#utility.yul\":5878:5932   */\n      tag_85\n      jump\t// in\n    tag_174:\n        /* \"#utility.yul\":5597:5938   */\n      pop\n        /* \"#utility.yul\":5513:5938   */\n      swap4\n      swap3\n      pop\n      pop\n      pop\n      jump\t// out\n        /* \"#utility.yul\":5958:6298   */\n    tag_87:\n        /* \"#utility.yul\":6014:6019   */\n      0x00\n        /* \"#utility.yul\":6063:6066   */\n      dup3\n        /* \"#utility.yul\":6056:6060   */\n      0x1f\n        /* \"#utility.yul\":6048:6054   */\n      dup4\n        /* \"#utility.yul\":6044:6061   */\n      add\n        /* \"#utility.yul\":6040:6067   */\n      slt\n        /* \"#utility.yul\":6030:6152   */\n      tag_176\n      jumpi\n        /* \"#utility.yul\":6071:6150   */\n      tag_177\n      tag_79\n      jump\t// in\n    tag_177:\n        /* \"#utility.yul\":6030:6152   */\n    tag_176:\n        /* \"#utility.yul\":6188:6194   */\n      dup2\n        /* \"#utility.yul\":6175:6195   */\n      calldataload\n        /* \"#utility.yul\":6213:6292   */\n      tag_178\n        /* \"#utility.yul\":6288:6291   */\n      dup5\n        /* \"#utility.yul\":6280:6286   */\n      dup3\n        /* \"#utility.yul\":6273:6277   */\n      0x20\n        /* \"#utility.yul\":6265:6271   */\n      dup7\n        /* \"#utility.yul\":6261:6278   */\n      add\n        /* \"#utility.yul\":6213:6292   */\n      tag_86\n      jump\t// in\n    tag_178:\n        /* \"#utility.yul\":6204:6292   */\n      swap2\n      pop\n        /* \"#utility.yul\":6020:6298   */\n      pop\n        /* \"#utility.yul\":5958:6298   */\n      swap3\n      swap2\n      pop\n      pop\n      jump\t// out\n        /* \"#utility.yul\":6304:6426   */\n    tag_88:\n        /* \"#utility.yul\":6377:6401   */\n      tag_180\n        /* \"#utility.yul\":6395:6400   */\n      dup2\n        /* \"#utility.yul\":6377:6401   */\n      tag_72\n      jump\t// in\n    tag_180:\n        /* \"#utility.yul\":6370:6375   */\n      dup2\n        /* \"#utility.yul\":6367:6402   */\n      eq\n        /* \"#utility.yul\":6357:6420   */\n      tag_181\n      jumpi\n        /* \"#utility.yul\":6416:6417   */\n      0x00\n        /* \"#utility.yul\":6413:6414   */\n      dup1\n        /* \"#utility.yul\":6406:6418   */\n      revert\n        /* \"#utility.yul\":6357:6420   */\n    tag_181:\n        /* \"#utility.yul\":6304:6426   */\n      pop\n      jump\t// out\n        /* \"#utility.yul\":6432:6571   */\n    tag_89:\n        /* \"#utility.yul\":6478:6483   */\n      0x00\n        /* \"#utility.yul\":6516:6522   */\n      dup2\n        /* \"#utility.yul\":6503:6523   */\n      calldataload\n        /* \"#utility.yul\":6494:6523   */\n      swap1\n      pop\n        /* \"#utility.yul\":6532:6565   */\n      tag_183\n        /* \"#utility.yul\":6559:6564   */\n      dup2\n        /* \"#utility.yul\":6532:6565   */\n      tag_88\n      jump\t// in\n    tag_183:\n        /* \"#utility.yul\":6432:6571   */\n      swap3\n      swap2\n      pop\n      pop\n      jump\t// out\n        /* \"#utility.yul\":6577:6685   */\n    tag_90:\n        /* \"#utility.yul\":6659:6660   */\n      0x03\n        /* \"#utility.yul\":6652:6657   */\n      dup2\n        /* \"#utility.yul\":6649:6661   */\n      lt\n        /* \"#utility.yul\":6639:6679   */\n      tag_185\n      jumpi\n        /* \"#utility.yul\":6675:6676   */\n      0x00\n        /* \"#utility.yul\":6672:6673   */\n      dup1\n        /* \"#utility.yul\":6665:6677   */\n      revert\n        /* \"#utility.yul\":6639:6679   */\n    tag_185:\n        /* \"#utility.yul\":6577:6685   */\n      pop\n      jump\t// out\n        /* \"#utility.yul\":6691:6848   */\n    tag_91:\n        /* \"#utility.yul\":6746:6751   */\n      0x00\n        /* \"#utility.yul\":6784:6790   */\n      dup2\n        /* \"#utility.yul\":6771:6791   */\n      calldataload\n        /* \"#utility.yul\":6762:6791   */\n      swap1\n      pop\n        /* \"#utility.yul\":6800:6842   */\n      tag_187\n        /* \"#utility.yul\":6836:6841   */\n      dup2\n        /* \"#utility.yul\":6800:6842   */\n      tag_90\n      jump\t// in\n    tag_187:\n        /* \"#utility.yul\":6691:6848   */\n      swap3\n      swap2\n      pop\n      pop\n      jump\t// out\n        /* \"#utility.yul\":6854:7671   */\n    tag_17:\n        /* \"#utility.yul\":6950:6956   */\n      0x00\n        /* \"#utility.yul\":6958:6964   */\n      dup1\n        /* \"#utility.yul\":6966:6972   */\n      0x00\n        /* \"#utility.yul\":7015:7017   */\n      0x60\n        /* \"#utility.yul\":7003:7012   */\n      dup5\n        /* \"#utility.yul\":6994:7001   */\n      dup7\n        /* \"#utility.yul\":6990:7013   */\n      sub\n        /* \"#utility.yul\":6986:7018   */\n      slt\n        /* \"#utility.yul\":6983:7102   */\n      iszero\n      tag_189\n      jumpi\n        /* \"#utility.yul\":7021:7100   */\n      tag_190\n      tag_61\n      jump\t// in\n    tag_190:\n        /* \"#utility.yul\":6983:7102   */\n    tag_189:\n        /* \"#utility.yul\":7169:7170   */\n      0x00\n        /* \"#utility.yul\":7158:7167   */\n      dup5\n        /* \"#utility.yul\":7154:7171   */\n      add\n        /* \"#utility.yul\":7141:7172   */\n      calldataload\n        /* \"#utility.yul\":7199:7217   */\n      0xffffffffffffffff\n        /* \"#utility.yul\":7191:7197   */\n      dup2\n        /* \"#utility.yul\":7188:7218   */\n      gt\n        /* \"#utility.yul\":7185:7302   */\n      iszero\n      tag_191\n      jumpi\n        /* \"#utility.yul\":7221:7300   */\n      tag_192\n      tag_62\n      jump\t// in\n    tag_192:\n        /* \"#utility.yul\":7185:7302   */\n    tag_191:\n        /* \"#utility.yul\":7326:7389   */\n      tag_193\n        /* \"#utility.yul\":7381:7388   */\n      dup7\n        /* \"#utility.yul\":7372:7378   */\n      dup3\n        /* \"#utility.yul\":7361:7370   */\n      dup8\n        /* \"#utility.yul\":7357:7379   */\n      add\n        /* \"#utility.yul\":7326:7389   */\n      tag_87\n      jump\t// in\n    tag_193:\n        /* \"#utility.yul\":7316:7389   */\n      swap4\n      pop\n        /* \"#utility.yul\":7112:7399   */\n      pop\n        /* \"#utility.yul\":7438:7440   */\n      0x20\n        /* \"#utility.yul\":7464:7517   */\n      tag_194\n        /* \"#utility.yul\":7509:7516   */\n      dup7\n        /* \"#utility.yul\":7500:7506   */\n      dup3\n        /* \"#utility.yul\":7489:7498   */\n      dup8\n        /* \"#utility.yul\":7485:7507   */\n      add\n        /* \"#utility.yul\":7464:7517   */\n      tag_89\n      jump\t// in\n    tag_194:\n        /* \"#utility.yul\":7454:7517   */\n      swap3\n      pop\n        /* \"#utility.yul\":7409:7527   */\n      pop\n        /* \"#utility.yul\":7566:7568   */\n      0x40\n        /* \"#utility.yul\":7592:7654   */\n      tag_195\n        /* \"#utility.yul\":7646:7653   */\n      dup7\n        /* \"#utility.yul\":7637:7643   */\n      dup3\n        /* \"#utility.yul\":7626:7635   */\n      dup8\n        /* \"#utility.yul\":7622:7644   */\n      add\n        /* \"#utility.yul\":7592:7654   */\n      tag_91\n      jump\t// in\n    tag_195:\n        /* \"#utility.yul\":7582:7654   */\n      swap2\n      pop\n        /* \"#utility.yul\":7537:7664   */\n      pop\n        /* \"#utility.yul\":6854:7671   */\n      swap3\n      pop\n      swap3\n      pop\n      swap3\n      jump\t// out\n        /* \"#utility.yul\":7677:7846   */\n    tag_92:\n        /* \"#utility.yul\":7761:7772   */\n      0x00\n        /* \"#utility.yul\":7795:7801   */\n      dup3\n        /* \"#utility.yul\":7790:7793   */\n      dup3\n        /* \"#utility.yul\":7783:7802   */\n      mstore\n        /* \"#utility.yul\":7835:7839   */\n      0x20\n        /* \"#utility.yul\":7830:7833   */\n      dup3\n        /* \"#utility.yul\":7826:7840   */\n      add\n        /* \"#utility.yul\":7811:7840   */\n      swap1\n      pop\n        /* \"#utility.yul\":7677:7846   */\n      swap3\n      swap2\n      pop\n      pop\n      jump\t// out\n        /* \"#utility.yul\":7852:8229   */\n    tag_93:\n        /* \"#utility.yul\":7940:7943   */\n      0x00\n        /* \"#utility.yul\":7968:8007   */\n      tag_198\n        /* \"#utility.yul\":8001:8006   */\n      dup3\n        /* \"#utility.yul\":7968:8007   */\n      tag_67\n      jump\t// in\n    tag_198:\n        /* \"#utility.yul\":8023:8094   */\n      tag_199\n        /* \"#utility.yul\":8087:8093   */\n      dup2\n        /* \"#utility.yul\":8082:8085   */\n      dup6\n        /* \"#utility.yul\":8023:8094   */\n      tag_92\n      jump\t// in\n    tag_199:\n        /* \"#utility.yul\":8016:8094   */\n      swap4\n      pop\n        /* \"#utility.yul\":8103:8168   */\n      tag_200\n        /* \"#utility.yul\":8161:8167   */\n      dup2\n        /* \"#utility.yul\":8156:8159   */\n      dup6\n        /* \"#utility.yul\":8149:8153   */\n      0x20\n        /* \"#utility.yul\":8142:8147   */\n      dup7\n        /* \"#utility.yul\":8138:8154   */\n      add\n        /* \"#utility.yul\":8103:8168   */\n      tag_69\n      jump\t// in\n    tag_200:\n        /* \"#utility.yul\":8193:8222   */\n      tag_201\n        /* \"#utility.yul\":8215:8221   */\n      dup2\n        /* \"#utility.yul\":8193:8222   */\n      tag_70\n      jump\t// in\n    tag_201:\n        /* \"#utility.yul\":8188:8191   */\n      dup5\n        /* \"#utility.yul\":8184:8223   */\n      add\n        /* \"#utility.yul\":8177:8223   */\n      swap2\n      pop\n        /* \"#utility.yul\":7944:8229   */\n      pop\n        /* \"#utility.yul\":7852:8229   */\n      swap3\n      swap2\n      pop\n      pop\n      jump\t// out\n        /* \"#utility.yul\":8235:8548   */\n    tag_24:\n        /* \"#utility.yul\":8348:8352   */\n      0x00\n        /* \"#utility.yul\":8386:8388   */\n      0x20\n        /* \"#utility.yul\":8375:8384   */\n      dup3\n        /* \"#utility.yul\":8371:8389   */\n      add\n        /* \"#utility.yul\":8363:8389   */\n      swap1\n      pop\n        /* \"#utility.yul\":8435:8444   */\n      dup2\n        /* \"#utility.yul\":8429:8433   */\n      dup2\n        /* \"#utility.yul\":8425:8445   */\n      sub\n        /* \"#utility.yul\":8421:8422   */\n      0x00\n        /* \"#utility.yul\":8410:8419   */\n      dup4\n        /* \"#utility.yul\":8406:8423   */\n      add\n        /* \"#utility.yul\":8399:8446   */\n      mstore\n        /* \"#utility.yul\":8463:8541   */\n      tag_203\n        /* \"#utility.yul\":8536:8540   */\n      dup2\n        /* \"#utility.yul\":8527:8533   */\n      dup5\n        /* \"#utility.yul\":8463:8541   */\n      tag_93\n      jump\t// in\n    tag_203:\n        /* \"#utility.yul\":8455:8541   */\n      swap1\n      pop\n        /* \"#utility.yul\":8235:8548   */\n      swap3\n      swap2\n      pop\n      pop\n      jump\t// out\n        /* \"#utility.yul\":8554:8734   */\n    tag_94:\n        /* \"#utility.yul\":8602:8679   */\n      0x4e487b7100000000000000000000000000000000000000000000000000000000\n        /* \"#utility.yul\":8599:8600   */\n      0x00\n        /* \"#utility.yul\":8592:8680   */\n      mstore\n        /* \"#utility.yul\":8699:8703   */\n      0x22\n        /* \"#utility.yul\":8696:8697   */\n      0x04\n        /* \"#utility.yul\":8689:8704   */\n      mstore\n        /* \"#utility.yul\":8723:8727   */\n      0x24\n        /* \"#utility.yul\":8720:8721   */\n      0x00\n        /* \"#utility.yul\":8713:8728   */\n      revert\n        /* \"#utility.yul\":8740:9060   */\n    tag_26:\n        /* \"#utility.yul\":8784:8790   */\n      0x00\n        /* \"#utility.yul\":8821:8822   */\n      0x02\n        /* \"#utility.yul\":8815:8819   */\n      dup3\n        /* \"#utility.yul\":8811:8823   */\n      div\n        /* \"#utility.yul\":8801:8823   */\n      swap1\n      pop\n        /* \"#utility.yul\":8868:8869   */\n      0x01\n        /* \"#utility.yul\":8862:8866   */\n      dup3\n        /* \"#utility.yul\":8858:8870   */\n      and\n        /* \"#utility.yul\":8889:8907   */\n      dup1\n        /* \"#utility.yul\":8879:8960   */\n      tag_206\n      jumpi\n        /* \"#utility.yul\":8945:8949   */\n      0x7f\n        /* \"#utility.yul\":8937:8943   */\n      dup3\n        /* \"#utility.yul\":8933:8950   */\n      and\n        /* \"#utility.yul\":8923:8950   */\n      swap2\n      pop\n        /* \"#utility.yul\":8879:8960   */\n    tag_206:\n        /* \"#utility.yul\":9007:9009   */\n      0x20\n        /* \"#utility.yul\":8999:9005   */\n      dup3\n        /* \"#utility.yul\":8996:9010   */\n      lt\n        /* \"#utility.yul\":8976:8994   */\n      dup2\n        /* \"#utility.yul\":8973:9011   */\n      sub\n        /* \"#utility.yul\":8970:9054   */\n      tag_207\n      jumpi\n        /* \"#utility.yul\":9026:9044   */\n      tag_208\n      tag_94\n      jump\t// in\n    tag_208:\n        /* \"#utility.yul\":8970:9054   */\n    tag_207:\n        /* \"#utility.yul\":8791:9060   */\n      pop\n        /* \"#utility.yul\":8740:9060   */\n      swap2\n      swap1\n      pop\n      jump\t// out\n        /* \"#utility.yul\":9066:9207   */\n    tag_95:\n        /* \"#utility.yul\":9115:9119   */\n      0x00\n        /* \"#utility.yul\":9138:9141   */\n      dup2\n        /* \"#utility.yul\":9130:9141   */\n      swap1\n      pop\n        /* \"#utility.yul\":9161:9164   */\n      dup2\n        /* \"#utility.yul\":9158:9159   */\n      0x00\n        /* \"#utility.yul\":9151:9165   */\n      mstore\n        /* \"#utility.yul\":9195:9199   */\n      0x20\n        /* \"#utility.yul\":9192:9193   */\n      0x00\n        /* \"#utility.yul\":9182:9200   */\n      keccak256\n        /* \"#utility.yul\":9174:9200   */\n      swap1\n      pop\n        /* \"#utility.yul\":9066:9207   */\n      swap2\n      swap1\n      pop\n      jump\t// out\n        /* \"#utility.yul\":9213:9306   */\n    tag_96:\n        /* \"#utility.yul\":9250:9256   */\n      0x00\n        /* \"#utility.yul\":9297:9299   */\n      0x20\n        /* \"#utility.yul\":9292:9294   */\n      0x1f\n        /* \"#utility.yul\":9285:9290   */\n      dup4\n        /* \"#utility.yul\":9281:9295   */\n      add\n        /* \"#utility.yul\":9277:9300   */\n      div\n        /* \"#utility.yul\":9267:9300   */\n      swap1\n      pop\n        /* \"#utility.yul\":9213:9306   */\n      swap2\n      swap1\n      pop\n      jump\t// out\n        /* \"#utility.yul\":9312:9419   */\n    tag_97:\n        /* \"#utility.yul\":9356:9364   */\n      0x00\n        /* \"#utility.yul\":9406:9411   */\n      dup3\n        /* \"#utility.yul\":9400:9404   */\n      dup3\n        /* \"#utility.yul\":9396:9412   */\n      shl\n        /* \"#utility.yul\":9375:9412   */\n      swap1\n      pop\n        /* \"#utility.yul\":9312:9419   */\n      swap3\n      swap2\n      pop\n      pop\n      jump\t// out\n        /* \"#utility.yul\":9425:9818   */\n    tag_98:\n        /* \"#utility.yul\":9494:9500   */\n      0x00\n        /* \"#utility.yul\":9544:9545   */\n      0x08\n        /* \"#utility.yul\":9532:9542   */\n      dup4\n        /* \"#utility.yul\":9528:9546   */\n      mul\n        /* \"#utility.yul\":9567:9664   */\n      tag_213\n        /* \"#utility.yul\":9597:9663   */\n      0xffffffffffffffffffffffffffffffffffffffffffffffffffffffffffffffff\n        /* \"#utility.yul\":9586:9595   */\n      dup3\n        /* \"#utility.yul\":9567:9664   */\n      tag_97\n      jump\t// in\n    tag_213:\n        /* \"#utility.yul\":9685:9724   */\n      tag_214\n        /* \"#utility.yul\":9715:9723   */\n      dup7\n        /* \"#utility.yul\":9704:9713   */\n      dup4\n        /* \"#utility.yul\":9685:9724   */\n      tag_97\n      jump\t// in\n    tag_214:\n        /* \"#utility.yul\":9673:9724   */\n      swap6\n      pop\n        /* \"#utility.yul\":9757:9761   */\n      dup1\n        /* \"#utility.yul\":9753:9762   */\n      not\n        /* \"#utility.yul\":9746:9751   */\n      dup5\n        /* \"#utility.yul\":9742:9763   */\n      and\n        /* \"#utility.yul\":9733:9763   */\n      swap4\n      pop\n        /* \"#utility.yul\":9806:9810   */\n      dup1\n        /* \"#utility.yul\":9796:9804   */\n      dup7\n        /* \"#utility.yul\":9792:9811   */\n      and\n        /* \"#utility.yul\":9785:9790   */\n      dup5\n        /* \"#utility.yul\":9782:9812   */\n      or\n        /* \"#utility.yul\":9772:9812   */\n      swap3\n      pop\n        /* \"#utility.yul\":9501:9818   */\n      pop\n      pop\n        /* \"#utility.yul\":9425:9818   */\n      swap4\n      swap3\n      pop\n      pop\n      pop\n      jump\t// out\n        /* \"#utility.yul\":9824:9884   */\n    tag_99:\n        /* \"#utility.yul\":9852:9855   */\n      0x00\n        /* \"#utility.yul\":9873:9878   */\n      dup2\n        /* \"#utility.yul\":9866:9878   */\n      swap1\n      pop\n        /* \"#utility.yul\":9824:9884   */\n      swap2\n      swap1\n      pop\n      jump\t// out\n        /* \"#utility.yul\":9890:10032   */\n    tag_100:\n        /* \"#utility.yul\":9940:9949   */\n      0x00\n        /* \"#utility.yul\":9973:10026   */\n      tag_217\n        /* \"#utility.yul\":9991:10025   */\n      tag_218\n        /* \"#utility.yul\":10000:10024   */\n      tag_219\n        /* \"#utility.yul\":10018:10023   */\n      dup5\n        /* \"#utility.yul\":10000:10024   */\n      tag_72\n      jump\t// in\n    tag_219:\n        /* \"#utility.yul\":9991:10025   */\n      tag_99\n      jump\t// in\n    tag_218:\n        /* \"#utility.yul\":9973:10026   */\n      tag_72\n      jump\t// in\n    tag_217:\n        /* \"#utility.yul\":9960:10026   */\n      swap1\n      pop\n        /* \"#utility.yul\":9890:10032   */\n      swap2\n      swap1\n      pop\n      jump\t// out\n        /* \"#utility.yul\":10038:10113   */\n    tag_101:\n        /* \"#utility.yul\":10081:10084   */\n      0x00\n        /* \"#utility.yul\":10102:10107   */\n      dup2\n        /* \"#utility.yul\":10095:10107   */\n      swap1\n      pop\n        /* \"#utility.yul\":10038:10113   */\n      swap2\n      swap1\n      pop\n      jump\t// out\n        /* \"#utility.yul\":10119:10388   */\n    tag_102:\n        /* \"#utility.yul\":10229:10268   */\n      tag_222\n        /* \"#utility.yul\":10260:10267   */\n      dup4\n        /* \"#utility.yul\":10229:10268   */\n      tag_100\n      jump\t// in\n    tag_222:\n        /* \"#utility.yul\":10290:10381   */\n      tag_223\n        /* \"#utility.yul\":10339:10380   */\n      tag_224\n        /* \"#utility.yul\":10363:10379   */\n      dup3\n        /* \"#utility.yul\":10339:10380   */\n      tag_101\n      jump\t// in\n    tag_224:\n        /* \"#utility.yul\":10331:10337   */\n      dup5\n        /* \"#utility.yul\":10324:10328   */\n      dup5\n        /* \"#utility.yul\":10318:10329   */\n      sload\n        /* \"#utility.yul\":10290:10381   */\n      tag_98\n      jump\t// in\n    tag_223:\n        /* \"#utility.yul\":10284:10288   */\n      dup3\n        /* \"#utility.yul\":10277:10382   */\n      sstore\n        /* \"#utility.yul\":10195:10388   */\n      pop\n        /* \"#utility.yul\":10119:10388   */\n      pop\n      pop\n      pop\n      jump\t// out\n        /* \"#utility.yul\":10394:10467   */\n    tag_103:\n        /* \"#utility.yul\":10439:10442   */\n      0x00\n        /* \"#utility.yul\":10394:10467   */\n      swap1\n      jump\t// out\n        /* \"#utility.yul\":10473:10662   */\n    tag_104:\n        /* \"#utility.yul\":10550:10582   */\n      tag_227\n      tag_103\n      jump\t// in\n    tag_227:\n        /* \"#utility.yul\":10591:10656   */\n      tag_228\n        /* \"#utility.yul\":10649:10655   */\n      dup2\n        /* \"#utility.yul\":10641:10647   */\n      dup5\n        /* \"#utility.yul\":10635:10639   */\n      dup5\n        /* \"#utility.yul\":10591:10656   */\n      tag_102\n      jump\t// in\n    tag_228:\n        /* \"#utility.yul\":10526:10662   */\n      pop\n        /* \"#utility.yul\":10473:10662   */\n      pop\n      pop\n      jump\t// out\n        /* \"#utility.yul\":10668:10854   */\n    tag_105:\n        /* \"#utility.yul\":10728:10848   */\n    tag_230:\n        /* \"#utility.yul\":10745:10748   */\n      dup2\n        /* \"#utility.yul\":10738:10743   */\n      dup2\n        /* \"#utility.yul\":10735:10749   */\n      lt\n        /* \"#utility.yul\":10728:10848   */\n      iszero\n      tag_232\n      jumpi\n        /* \"#utility.yul\":10799:10838   */\n      tag_233\n        /* \"#utility.yul\":10836:10837   */\n      0x00\n        /* \"#utility.yul\":10829:10834   */\n      dup3\n        /* \"#utility.yul\":10799:10838   */\n      tag_104\n      jump\t// in\n    tag_233:\n        /* \"#utility.yul\":10772:10773   */\n      0x01\n        /* \"#utility.yul\":10765:10770   */\n      dup2\n        /* \"#utility.yul\":10761:10774   */\n      add\n        /* \"#utility.yul\":10752:10774   */\n      swap1\n      pop\n        /* \"#utility.yul\":10728:10848   */\n      jump(tag_230)\n    tag_232:\n        /* \"#utility.yul\":10668:10854   */\n      pop\n      pop\n      jump\t// out\n        /* \"#utility.yul\":10860:11403   */\n    tag_106:\n        /* \"#utility.yul\":10961:10963   */\n      0x1f\n        /* \"#utility.yul\":10956:10959   */\n      dup3\n        /* \"#utility.yul\":10953:10964   */\n      gt\n        /* \"#utility.yul\":10950:11396   */\n      iszero\n      tag_235\n      jumpi\n        /* \"#utility.yul\":10995:11033   */\n      tag_236\n        /* \"#utility.yul\":11027:11032   */\n      dup2\n        /* \"#utility.yul\":10995:11033   */\n      tag_95\n      jump\t// in\n    tag_236:\n        /* \"#utility.yul\":11079:11108   */\n      tag_237\n        /* \"#utility.yul\":11097:11107   */\n      dup5\n        /* \"#utility.yul\":11079:11108   */\n      tag_96\n      jump\t// in\n    tag_237:\n        /* \"#utility.yul\":11069:11077   */\n      dup2\n        /* \"#utility.yul\":11065:11109   */\n      add\n        /* \"#utility.yul\":11262:11264   */\n      0x20\n        /* \"#utility.yul\":11250:11260   */\n      dup6\n        /* \"#utility.yul\":11247:11265   */\n      lt\n        /* \"#utility.yul\":11244:11293   */\n      iszero\n      tag_238\n      jumpi\n        /* \"#utility.yul\":11283:11291   */\n      dup2\n        /* \"#utility.yul\":11268:11291   */\n      swap1\n      pop\n        /* \"#utility.yul\":11244:11293   */\n    tag_238:\n        /* \"#utility.yul\":11306:11386   */\n      tag_239\n        /* \"#utility.yul\":11362:11384   */\n      tag_240\n        /* \"#utility.yul\":11380:11383   */\n      dup6\n        /* \"#utility.yul\":11362:11384   */\n      tag_96\n      jump\t// in\n    tag_240:\n        /* \"#utility.yul\":11352:11360   */\n      dup4\n        /* \"#utility.yul\":11348:11385   */\n      add\n        /* \"#utility.yul\":11335:11346   */\n      dup3\n        /* \"#utility.yul\":11306:11386   */\n      tag_105\n      jump\t// in\n    tag_239:\n        /* \"#utility.yul\":10965:11396   */\n      pop\n      pop\n        /* \"#utility.yul\":10950:11396   */\n    tag_235:\n        /* \"#utility.yul\":10860:11403   */\n      pop\n      pop\n      pop\n      jump\t// out\n        /* \"#utility.yul\":11409:11526   */\n    tag_107:\n        /* \"#utility.yul\":11463:11471   */\n      0x00\n        /* \"#utility.yul\":11513:11518   */\n      dup3\n        /* \"#utility.yul\":11507:11511   */\n      dup3\n        /* \"#utility.yul\":11503:11519   */\n      shr\n        /* \"#utility.yul\":11482:11519   */\n      swap1\n      pop\n        /* \"#utility.yul\":11409:11526   */\n      swap3\n      swap2\n      pop\n      pop\n      jump\t// out\n        /* \"#utility.yul\":11532:11701   */\n    tag_108:\n        /* \"#utility.yul\":11576:11582   */\n      0x00\n        /* \"#utility.yul\":11609:11660   */\n      tag_243\n        /* \"#utility.yul\":11657:11658   */\n      0x00\n        /* \"#utility.yul\":11653:11659   */\n      not\n        /* \"#utility.yul\":11645:11650   */\n      dup5\n        /* \"#utility.yul\":11642:11643   */\n      0x08\n        /* \"#utility.yul\":11638:11651   */\n      mul\n        /* \"#utility.yul\":11609:11660   */\n      tag_107\n      jump\t// in\n    tag_243:\n        /* \"#utility.yul\":11605:11661   */\n      not\n        /* \"#utility.yul\":11690:11694   */\n      dup1\n        /* \"#utility.yul\":11684:11688   */\n      dup4\n        /* \"#utility.yul\":11680:11695   */\n      and\n        /* \"#utility.yul\":11670:11695   */\n      swap2\n      pop\n        /* \"#utility.yul\":11583:11701   */\n      pop\n        /* \"#utility.yul\":11532:11701   */\n      swap3\n      swap2\n      pop\n      pop\n      jump\t// out\n        /* \"#utility.yul\":11706:12001   */\n    tag_109:\n        /* \"#utility.yul\":11782:11786   */\n      0x00\n        /* \"#utility.yul\":11928:11957   */\n      tag_245\n        /* \"#utility.yul\":11953:11956   */\n      dup4\n        /* \"#utility.yul\":11947:11951   */\n      dup4\n        /* \"#utility.yul\":11928:11957   */\n      tag_108\n      jump\t// in\n    tag_245:\n        /* \"#utility.yul\":11920:11957   */\n      swap2\n      pop\n        /* \"#utility.yul\":11990:11993   */\n      dup3\n        /* \"#utility.yul\":11987:11988   */\n      0x02\n        /* \"#utility.yul\":11983:11994   */\n      mul\n        /* \"#utility.yul\":11977:11981   */\n      dup3\n        /* \"#utility.yul\":11974:11995   */\n      or\n        /* \"#utility.yul\":11966:11995   */\n      swap1\n      pop\n        /* \"#utility.yul\":11706:12001   */\n      swap3\n      swap2\n      pop\n      pop\n      jump\t// out\n        /* \"#utility.yul\":12006:13401   */\n    tag_55:\n        /* \"#utility.yul\":12123:12160   */\n      tag_247\n        /* \"#utility.yul\":12156:12159   */\n      dup3\n        /* \"#utility.yul\":12123:12160   */\n      tag_67\n      jump\t// in\n    tag_247:\n        /* \"#utility.yul\":12225:12243   */\n      0xffffffffffffffff\n        /* \"#utility.yul\":12217:12223   */\n      dup2\n        /* \"#utility.yul\":12214:12244   */\n      gt\n        /* \"#utility.yul\":12211:12267   */\n      iszero\n      tag_248\n      jumpi\n        /* \"#utility.yul\":12247:12265   */\n      tag_249\n      tag_81\n      jump\t// in\n    tag_249:\n        /* \"#utility.yul\":12211:12267   */\n    tag_248:\n        /* \"#utility.yul\":12291:12329   */\n      tag_250\n        /* \"#utility.yul\":12323:12327   */\n      dup3\n        /* \"#utility.yul\":12317:12328   */\n      sload\n        /* \"#utility.yul\":12291:12329   */\n      tag_26\n      jump\t// in\n    tag_250:\n        /* \"#utility.yul\":12376:12443   */\n      tag_251\n        /* \"#utility.yul\":12436:12442   */\n      dup3\n        /* \"#utility.yul\":12428:12434   */\n      dup3\n        /* \"#utility.yul\":12422:12426   */\n      dup6\n        /* \"#utility.yul\":12376:12443   */\n      tag_106\n      jump\t// in\n    tag_251:\n        /* \"#utility.yul\":12470:12471   */\n      0x00\n        /* \"#utility.yul\":12494:12498   */\n      0x20\n        /* \"#utility.yul\":12481:12498   */\n      swap1\n      pop\n        /* \"#utility.yul\":12526:12528   */\n      0x1f\n        /* \"#utility.yul\":12518:12524   */\n      dup4\n        /* \"#utility.yul\":12515:12529   */\n      gt\n        /* \"#utility.yul\":12543:12544   */\n      0x01\n        /* \"#utility.yul\":12538:13156   */\n      dup2\n      eq\n      tag_253\n      jumpi\n        /* \"#utility.yul\":13200:13201   */\n      0x00\n        /* \"#utility.yul\":13217:13223   */\n      dup5\n        /* \"#utility.yul\":13214:13291   */\n      iszero\n      tag_254\n      jumpi\n        /* \"#utility.yul\":13266:13275   */\n      dup3\n        /* \"#utility.yul\":13261:13264   */\n      dup8\n        /* \"#utility.yul\":13257:13276   */\n      add\n        /* \"#utility.yul\":13251:13277   */\n      mload\n        /* \"#utility.yul\":13242:13277   */\n      swap1\n      pop\n        /* \"#utility.yul\":13214:13291   */\n    tag_254:\n        /* \"#utility.yul\":13317:13384   */\n      tag_255\n        /* \"#utility.yul\":13377:13383   */\n      dup6\n        /* \"#utility.yul\":13370:13375   */\n      dup3\n        /* \"#utility.yul\":13317:13384   */\n      tag_109\n      jump\t// in\n    tag_255:\n        /* \"#utility.yul\":13311:13315   */\n      dup7\n        /* \"#utility.yul\":13304:13385   */\n      sstore\n        /* \"#utility.yul\":13173:13395   */\n      pop\n        /* \"#utility.yul\":12508:13395   */\n      jump(tag_252)\n        /* \"#utility.yul\":12538:13156   */\n    tag_253:\n        /* \"#utility.yul\":12590:12594   */\n      0x1f\n        /* \"#utility.yul\":12586:12595   */\n      not\n        /* \"#utility.yul\":12578:12584   */\n      dup5\n        /* \"#utility.yul\":12574:12596   */\n      and\n        /* \"#utility.yul\":12624:12661   */\n      tag_256\n        /* \"#utility.yul\":12656:12660   */\n      dup7\n        /* \"#utility.yul\":12624:12661   */\n      tag_95\n      jump\t// in\n    tag_256:\n        /* \"#utility.yul\":12683:12684   */\n      0x00\n        /* \"#utility.yul\":12697:12905   */\n    tag_257:\n        /* \"#utility.yul\":12711:12718   */\n      dup3\n        /* \"#utility.yul\":12708:12709   */\n      dup2\n        /* \"#utility.yul\":12705:12719   */\n      lt\n        /* \"#utility.yul\":12697:12905   */\n      iszero\n      tag_259\n      jumpi\n        /* \"#utility.yul\":12790:12799   */\n      dup5\n        /* \"#utility.yul\":12785:12788   */\n      dup10\n        /* \"#utility.yul\":12781:12800   */\n      add\n        /* \"#utility.yul\":12775:12801   */\n      mload\n        /* \"#utility.yul\":12767:12773   */\n      dup3\n        /* \"#utility.yul\":12760:12802   */\n      sstore\n        /* \"#utility.yul\":12841:12842   */\n      0x01\n        /* \"#utility.yul\":12833:12839   */\n      dup3\n        /* \"#utility.yul\":12829:12843   */\n      add\n        /* \"#utility.yul\":12819:12843   */\n      swap2\n      pop\n        /* \"#utility.yul\":12888:12890   */\n      0x20\n        /* \"#utility.yul\":12877:12886   */\n      dup6\n        /* \"#utility.yul\":12873:12891   */\n      add\n        /* \"#utility.yul\":12860:12891   */\n      swap5\n      pop\n        /* \"#utility.yul\":12734:12738   */\n      0x20\n        /* \"#utility.yul\":12731:12732   */\n      dup2\n        /* \"#utility.yul\":12727:12739   */\n      add\n        /* \"#utility.yul\":12722:12739   */\n      swap1\n      pop\n        /* \"#utility.yul\":12697:12905   */\n      jump(tag_257)\n    tag_259:\n        /* \"#utility.yul\":12933:12939   */\n      dup7\n        /* \"#utility.yul\":12924:12931   */\n      dup4\n        /* \"#utility.yul\":12921:12940   */\n      lt\n        /* \"#utility.yul\":12918:13097   */\n      iszero\n      tag_260\n      jumpi\n        /* \"#utility.yul\":12991:13000   */\n      dup5\n        /* \"#utility.yul\":12986:12989   */\n      dup10\n        /* \"#utility.yul\":12982:13001   */\n      add\n        /* \"#utility.yul\":12976:13002   */\n      mload\n        /* \"#utility.yul\":13034:13082   */\n      tag_261\n        /* \"#utility.yul\":13076:13080   */\n      0x1f\n        /* \"#utility.yul\":13068:13074   */\n      dup10\n        /* \"#utility.yul\":13064:13081   */\n      and\n        /* \"#utility.yul\":13053:13062   */\n      dup3\n        /* \"#utility.yul\":13034:13082   */\n      tag_108\n      jump\t// in\n    tag_261:\n        /* \"#utility.yul\":13026:13032   */\n      dup4\n        /* \"#utility.yul\":13019:13083   */\n      sstore\n        /* \"#utility.yul\":12941:13097   */\n      pop\n        /* \"#utility.yul\":12918:13097   */\n    tag_260:\n        /* \"#utility.yul\":13143:13144   */\n      0x01\n        /* \"#utility.yul\":13139:13140   */\n      0x02\n        /* \"#utility.yul\":13131:13137   */\n      dup9\n        /* \"#utility.yul\":13127:13141   */\n      mul\n        /* \"#utility.yul\":13123:13145   */\n      add\n        /* \"#utility.yul\":13117:13121   */\n      dup9\n        /* \"#utility.yul\":13110:13146   */\n      sstore\n        /* \"#utility.yul\":12545:13156   */\n      pop\n      pop\n      pop\n        /* \"#utility.yul\":12508:13395   */\n    tag_252:\n      pop\n        /* \"#utility.yul\":12098:13401   */\n      pop\n      pop\n      pop\n        /* \"#utility.yul\":12006:13401   */\n      pop\n      pop\n      jump\t// out\n\n    auxdata: 0xa2646970667358221220b694f4f2ec1216e13fc0b6dc3a880cfac5a24415dae195d0da2e826963ab30ba64736f6c634300081a0033\n}\n",
				"bytecode": {
					"linkReferences": {},
					"object": "6080604052348015600e575f80fd5b50610d6e8061001c5f395ff3fe608060405234801561000f575f80fd5b506004361061003f575f3560e01c8063091c45531461004357806392146b8b14610073578063d6c390ec14610091575b5f80fd5b61005d6004803603810190610058919061068f565b6100ad565b60405161006a9190610802565b60405180910390f35b61007b610295565b6040516100889190610802565b60405180910390f35b6100ab60048036038101906100a6919061099b565b61047b565b005b6100b56105f3565b5f805f3373ffffffffffffffffffffffffffffffffffffffff1673ffffffffffffffffffffffffffffffffffffffff1681526020019081526020015f2060010154116040518060400160405280600f81526020017f555345525f49535f4352454154454400000000000000000000000000000000008152509061016e576040517f08c379a00000000000000000000000000000000000000000000000000000000081526004016101659190610a4f565b60405180910390fd5b505f805f8473ffffffffffffffffffffffffffffffffffffffff1673ffffffffffffffffffffffffffffffffffffffff1681526020019081526020015f206040518060600160405290815f820180546101c690610a9c565b80601f01602080910402602001604051908101604052809291908181526020018280546101f290610a9c565b801561023d5780601f106102145761010080835404028352916020019161023d565b820191905f5260205f20905b81548152906001019060200180831161022057829003601f168201915b5050505050815260200160018201548152602001600282015f9054906101000a900460ff16600281111561027457610273610742565b5b600281111561028657610285610742565b5b81525050905080915050919050565b61029d6105f3565b5f805f3373ffffffffffffffffffffffffffffffffffffffff1673ffffffffffffffffffffffffffffffffffffffff1681526020019081526020015f2060010154116040518060400160405280601181526020017f555345525f49535f4e4f545f464f554e4400000000000000000000000000000081525090610356576040517f08c379a000000000000000000000000000000000000000000000000000000000815260040161034d9190610a4f565b60405180910390fd5b505f805f3373ffffffffffffffffffffffffffffffffffffffff1673ffffffffffffffffffffffffffffffffffffffff1681526020019081526020015f206040518060600160405290815f820180546103ae90610a9c565b80601f01602080910402602001604051908101604052809291908181526020018280546103da90610a9c565b80156104255780601f106103fc57610100808354040283529160200191610425565b820191905f5260205f20905b81548152906001019060200180831161040857829003601f168201915b5050505050815260200160018201548152602001600282015f9054906101000a900460ff16600281111561045c5761045b610742565b5b600281111561046e5761046d610742565b5b8152505090508091505090565b5f805f3373ffffffffffffffffffffffffffffffffffffffff1673ffffffffffffffffffffffffffffffffffffffff1681526020019081526020015f2060010154146040518060400160405280601181526020017f555345525f49535f4e4f545f464f554e4400000000000000000000000000000081525090610534576040517f08c379a000000000000000000000000000000000000000000000000000000000815260040161052b9190610a4f565b60405180910390fd5b50604051806060016040528084815260200183815260200182600281111561055f5761055e610742565b5b8152505f803373ffffffffffffffffffffffffffffffffffffffff1673ffffffffffffffffffffffffffffffffffffffff1681526020019081526020015f205f820151815f0190816105b19190610c69565b50602082015181600101556040820151816002015f6101000a81548160ff021916908360028111156105e6576105e5610742565b5b0217905550905050505050565b6040518060600160405280606081526020015f81526020015f600281111561061e5761061d610742565b5b81525090565b5f604051905090565b5f80fd5b5f80fd5b5f73ffffffffffffffffffffffffffffffffffffffff82169050919050565b5f61065e82610635565b9050919050565b61066e81610654565b8114610678575f80fd5b50565b5f8135905061068981610665565b92915050565b5f602082840312156106a4576106a361062d565b5b5f6106b18482850161067b565b91505092915050565b5f81519050919050565b5f82825260208201905092915050565b8281835e5f83830152505050565b5f601f19601f8301169050919050565b5f6106fc826106ba565b61070681856106c4565b93506107168185602086016106d4565b61071f816106e2565b840191505092915050565b5f819050919050565b61073c8161072a565b82525050565b7f4e487b71000000000000000000000000000000000000000000000000000000005f52602160045260245ffd5b600381106107805761077f610742565b5b50565b5f8190506107908261076f565b919050565b5f61079f82610783565b9050919050565b6107af81610795565b82525050565b5f606083015f8301518482035f8601526107cf82826106f2565b91505060208301516107e46020860182610733565b5060408301516107f760408601826107a6565b508091505092915050565b5f6020820190508181035f83015261081a81846107b5565b905092915050565b5f80fd5b5f80fd5b7f4e487b71000000000000000000000000000000000000000000000000000000005f52604160045260245ffd5b610860826106e2565b810181811067ffffffffffffffff8211171561087f5761087e61082a565b5b80604052505050565b5f610891610624565b905061089d8282610857565b919050565b5f67ffffffffffffffff8211156108bc576108bb61082a565b5b6108c5826106e2565b9050602081019050919050565b828183375f83830152505050565b5f6108f26108ed846108a2565b610888565b90508281526020810184848401111561090e5761090d610826565b5b6109198482856108d2565b509392505050565b5f82601f83011261093557610934610822565b5b81356109458482602086016108e0565b91505092915050565b6109578161072a565b8114610961575f80fd5b50565b5f813590506109728161094e565b92915050565b60038110610984575f80fd5b50565b5f8135905061099581610978565b92915050565b5f805f606084860312156109b2576109b161062d565b5b5f84013567ffffffffffffffff8111156109cf576109ce610631565b5b6109db86828701610921565b93505060206109ec86828701610964565b92505060406109fd86828701610987565b9150509250925092565b5f82825260208201905092915050565b5f610a21826106ba565b610a2b8185610a07565b9350610a3b8185602086016106d4565b610a44816106e2565b840191505092915050565b5f6020820190508181035f830152610a678184610a17565b905092915050565b7f4e487b71000000000000000000000000000000000000000000000000000000005f52602260045260245ffd5b5f6002820490506001821680610ab357607f821691505b602082108103610ac657610ac5610a6f565b5b50919050565b5f819050815f5260205f209050919050565b5f6020601f8301049050919050565b5f82821b905092915050565b5f60088302610b287fffffffffffffffffffffffffffffffffffffffffffffffffffffffffffffffff82610aed565b610b328683610aed565b95508019841693508086168417925050509392505050565b5f819050919050565b5f610b6d610b68610b638461072a565b610b4a565b61072a565b9050919050565b5f819050919050565b610b8683610b53565b610b9a610b9282610b74565b848454610af9565b825550505050565b5f90565b610bae610ba2565b610bb9818484610b7d565b505050565b5b81811015610bdc57610bd15f82610ba6565b600181019050610bbf565b5050565b601f821115610c2157610bf281610acc565b610bfb84610ade565b81016020851015610c0a578190505b610c1e610c1685610ade565b830182610bbe565b50505b505050565b5f82821c905092915050565b5f610c415f1984600802610c26565b1980831691505092915050565b5f610c598383610c32565b9150826002028217905092915050565b610c72826106ba565b67ffffffffffffffff811115610c8b57610c8a61082a565b5b610c958254610a9c565b610ca0828285610be0565b5f60209050601f831160018114610cd1575f8415610cbf578287015190505b610cc98582610c4e565b865550610d30565b601f198416610cdf86610acc565b5f5b82811015610d0657848901518255600182019150602085019450602081019050610ce1565b86831015610d235784890151610d1f601f891682610c32565b8355505b6001600288020188555050505b50505050505056fea2646970667358221220b694f4f2ec1216e13fc0b6dc3a880cfac5a24415dae195d0da2e826963ab30ba64736f6c634300081a0033",
					"opcodes": "PUSH1 0x80 PUSH1 0x40 MSTORE CALLVALUE DUP1 ISZERO PUSH1 0xE JUMPI PUSH0 DUP1 REVERT JUMPDEST POP PUSH2 0xD6E DUP1 PUSH2 0x1C PUSH0 CODECOPY PUSH0 RETURN INVALID PUSH1 0x80 PUSH1 0x40 MSTORE CALLVALUE DUP1 ISZERO PUSH2 0xF JUMPI PUSH0 DUP1 REVERT JUMPDEST POP PUSH1 0x4 CALLDATASIZE LT PUSH2 0x3F JUMPI PUSH0 CALLDATALOAD PUSH1 0xE0 SHR DUP1 PUSH4 0x91C4553 EQ PUSH2 0x43 JUMPI DUP1 PUSH4 0x92146B8B EQ PUSH2 0x73 JUMPI DUP1 PUSH4 0xD6C390EC EQ PUSH2 0x91 JUMPI JUMPDEST PUSH0 DUP1 REVERT JUMPDEST PUSH2 0x5D PUSH1 0x4 DUP1 CALLDATASIZE SUB DUP2 ADD SWAP1 PUSH2 0x58 SWAP2 SWAP1 PUSH2 0x68F JUMP JUMPDEST PUSH2 0xAD JUMP JUMPDEST PUSH1 0x40 MLOAD PUSH2 0x6A SWAP2 SWAP1 PUSH2 0x802 JUMP JUMPDEST PUSH1 0x40 MLOAD DUP1 SWAP2 SUB SWAP1 RETURN JUMPDEST PUSH2 0x7B PUSH2 0x295 JUMP JUMPDEST PUSH1 0x40 MLOAD PUSH2 0x88 SWAP2 SWAP1 PUSH2 0x802 JUMP JUMPDEST PUSH1 0x40 MLOAD DUP1 SWAP2 SUB SWAP1 RETURN JUMPDEST PUSH2 0xAB PUSH1 0x4 DUP1 CALLDATASIZE SUB DUP2 ADD SWAP1 PUSH2 0xA6 SWAP2 SWAP1 PUSH2 0x99B JUMP JUMPDEST PUSH2 0x47B JUMP JUMPDEST STOP JUMPDEST PUSH2 0xB5 PUSH2 0x5F3 JUMP JUMPDEST PUSH0 DUP1 PUSH0 CALLER PUSH20 0xFFFFFFFFFFFFFFFFFFFFFFFFFFFFFFFFFFFFFFFF AND PUSH20 0xFFFFFFFFFFFFFFFFFFFFFFFFFFFFFFFFFFFFFFFF AND DUP2 MSTORE PUSH1 0x20 ADD SWAP1 DUP2 MSTORE PUSH1 0x20 ADD PUSH0 KECCAK256 PUSH1 0x1 ADD SLOAD GT PUSH1 0x40 MLOAD DUP1 PUSH1 0x40 ADD PUSH1 0x40 MSTORE DUP1 PUSH1 0xF DUP2 MSTORE PUSH1 0x20 ADD PUSH32 0x555345525F49535F435245415445440000000000000000000000000000000000 DUP2 MSTORE POP SWAP1 PUSH2 0x16E JUMPI PUSH1 0x40 MLOAD PUSH32 0x8C379A000000000000000000000000000000000000000000000000000000000 DUP2 MSTORE PUSH1 0x4 ADD PUSH2 0x165 SWAP2 SWAP1 PUSH2 0xA4F JUMP JUMPDEST PUSH1 0x40 MLOAD DUP1 SWAP2 SUB SWAP1 REVERT JUMPDEST POP PUSH0 DUP1 PUSH0 DUP5 PUSH20 0xFFFFFFFFFFFFFFFFFFFFFFFFFFFFFFFFFFFFFFFF AND PUSH20 0xFFFFFFFFFFFFFFFFFFFFFFFFFFFFFFFFFFFFFFFF AND DUP2 MSTORE PUSH1 0x20 ADD SWAP1 DUP2 MSTORE PUSH1 0x20 ADD PUSH0 KECCAK256 PUSH1 0x40 MLOAD DUP1 PUSH1 0x60 ADD PUSH1 0x40 MSTORE SWAP1 DUP2 PUSH0 DUP3 ADD DUP1 SLOAD PUSH2 0x1C6 SWAP1 PUSH2 0xA9C JUMP JUMPDEST DUP1 PUSH1 0x1F ADD PUSH1 0x20 DUP1 SWAP2 DIV MUL PUSH1 0x20 ADD PUSH1 0x40 MLOAD SWAP1 DUP2 ADD PUSH1 0x40 MSTORE DUP1 SWAP3 SWAP2 SWAP1 DUP2 DUP2 MSTORE PUSH1 0x20 ADD DUP3 DUP1 SLOAD PUSH2 0x1F2 SWAP1 PUSH2 0xA9C JUMP JUMPDEST DUP1 ISZERO PUSH2 0x23D JUMPI DUP1 PUSH1 0x1F LT PUSH2 0x214 JUMPI PUSH2 0x100 DUP1 DUP4 SLOAD DIV MUL DUP4 MSTORE SWAP2 PUSH1 0x20 ADD SWAP2 PUSH2 0x23D JUMP JUMPDEST DUP3 ADD SWAP2 SWAP1 PUSH0 MSTORE PUSH1 0x20 PUSH0 KECCAK256 SWAP1 JUMPDEST DUP2 SLOAD DUP2 MSTORE SWAP1 PUSH1 0x1 ADD SWAP1 PUSH1 0x20 ADD DUP1 DUP4 GT PUSH2 0x220 JUMPI DUP3 SWAP1 SUB PUSH1 0x1F AND DUP3 ADD SWAP2 JUMPDEST POP POP POP POP POP DUP2 MSTORE PUSH1 0x20 ADD PUSH1 0x1 DUP3 ADD SLOAD DUP2 MSTORE PUSH1 0x20 ADD PUSH1 0x2 DUP3 ADD PUSH0 SWAP1 SLOAD SWAP1 PUSH2 0x100 EXP SWAP1 DIV PUSH1 0xFF AND PUSH1 0x2 DUP2 GT ISZERO PUSH2 0x274 JUMPI PUSH2 0x273 PUSH2 0x742 JUMP JUMPDEST JUMPDEST PUSH1 0x2 DUP2 GT ISZERO PUSH2 0x286 JUMPI PUSH2 0x285 PUSH2 0x742 JUMP JUMPDEST JUMPDEST DUP2 MSTORE POP POP SWAP1 POP DUP1 SWAP2 POP POP SWAP2 SWAP1 POP JUMP JUMPDEST PUSH2 0x29D PUSH2 0x5F3 JUMP JUMPDEST PUSH0 DUP1 PUSH0 CALLER PUSH20 0xFFFFFFFFFFFFFFFFFFFFFFFFFFFFFFFFFFFFFFFF AND PUSH20 0xFFFFFFFFFFFFFFFFFFFFFFFFFFFFFFFFFFFFFFFF AND DUP2 MSTORE PUSH1 0x20 ADD SWAP1 DUP2 MSTORE PUSH1 0x20 ADD PUSH0 KECCAK256 PUSH1 0x1 ADD SLOAD GT PUSH1 0x40 MLOAD DUP1 PUSH1 0x40 ADD PUSH1 0x40 MSTORE DUP1 PUSH1 0x11 DUP2 MSTORE PUSH1 0x20 ADD PUSH32 0x555345525F49535F4E4F545F464F554E44000000000000000000000000000000 DUP2 MSTORE POP SWAP1 PUSH2 0x356 JUMPI PUSH1 0x40 MLOAD PUSH32 0x8C379A000000000000000000000000000000000000000000000000000000000 DUP2 MSTORE PUSH1 0x4 ADD PUSH2 0x34D SWAP2 SWAP1 PUSH2 0xA4F JUMP JUMPDEST PUSH1 0x40 MLOAD DUP1 SWAP2 SUB SWAP1 REVERT JUMPDEST POP PUSH0 DUP1 PUSH0 CALLER PUSH20 0xFFFFFFFFFFFFFFFFFFFFFFFFFFFFFFFFFFFFFFFF AND PUSH20 0xFFFFFFFFFFFFFFFFFFFFFFFFFFFFFFFFFFFFFFFF AND DUP2 MSTORE PUSH1 0x20 ADD SWAP1 DUP2 MSTORE PUSH1 0x20 ADD PUSH0 KECCAK256 PUSH1 0x40 MLOAD DUP1 PUSH1 0x60 ADD PUSH1 0x40 MSTORE SWAP1 DUP2 PUSH0 DUP3 ADD DUP1 SLOAD PUSH2 0x3AE SWAP1 PUSH2 0xA9C JUMP JUMPDEST DUP1 PUSH1 0x1F ADD PUSH1 0x20 DUP1 SWAP2 DIV MUL PUSH1 0x20 ADD PUSH1 0x40 MLOAD SWAP1 DUP2 ADD PUSH1 0x40 MSTORE DUP1 SWAP3 SWAP2 SWAP1 DUP2 DUP2 MSTORE PUSH1 0x20 ADD DUP3 DUP1 SLOAD PUSH2 0x3DA SWAP1 PUSH2 0xA9C JUMP JUMPDEST DUP1 ISZERO PUSH2 0x425 JUMPI DUP1 PUSH1 0x1F LT PUSH2 0x3FC JUMPI PUSH2 0x100 DUP1 DUP4 SLOAD DIV MUL DUP4 MSTORE SWAP2 PUSH1 0x20 ADD SWAP2 PUSH2 0x425 JUMP JUMPDEST DUP3 ADD SWAP2 SWAP1 PUSH0 MSTORE PUSH1 0x20 PUSH0 KECCAK256 SWAP1 JUMPDEST DUP2 SLOAD DUP2 MSTORE SWAP1 PUSH1 0x1 ADD SWAP1 PUSH1 0x20 ADD DUP1 DUP4 GT PUSH2 0x408 JUMPI DUP3 SWAP1 SUB PUSH1 0x1F AND DUP3 ADD SWAP2 JUMPDEST POP POP POP POP POP DUP2 MSTORE PUSH1 0x20 ADD PUSH1 0x1 DUP3 ADD SLOAD DUP2 MSTORE PUSH1 0x20 ADD PUSH1 0x2 DUP3 ADD PUSH0 SWAP1 SLOAD SWAP1 PUSH2 0x100 EXP SWAP1 DIV PUSH1 0xFF AND PUSH1 0x2 DUP2 GT ISZERO PUSH2 0x45C JUMPI PUSH2 0x45B PUSH2 0x742 JUMP JUMPDEST JUMPDEST PUSH1 0x2 DUP2 GT ISZERO PUSH2 0x46E JUMPI PUSH2 0x46D PUSH2 0x742 JUMP JUMPDEST JUMPDEST DUP2 MSTORE POP POP SWAP1 POP DUP1 SWAP2 POP POP SWAP1 JUMP JUMPDEST PUSH0 DUP1 PUSH0 CALLER PUSH20 0xFFFFFFFFFFFFFFFFFFFFFFFFFFFFFFFFFFFFFFFF AND PUSH20 0xFFFFFFFFFFFFFFFFFFFFFFFFFFFFFFFFFFFFFFFF AND DUP2 MSTORE PUSH1 0x20 ADD SWAP1 DUP2 MSTORE PUSH1 0x20 ADD PUSH0 KECCAK256 PUSH1 0x1 ADD SLOAD EQ PUSH1 0x40 MLOAD DUP1 PUSH1 0x40 ADD PUSH1 0x40 MSTORE DUP1 PUSH1 0x11 DUP2 MSTORE PUSH1 0x20 ADD PUSH32 0x555345525F49535F4E4F545F464F554E44000000000000000000000000000000 DUP2 MSTORE POP SWAP1 PUSH2 0x534 JUMPI PUSH1 0x40 MLOAD PUSH32 0x8C379A000000000000000000000000000000000000000000000000000000000 DUP2 MSTORE PUSH1 0x4 ADD PUSH2 0x52B SWAP2 SWAP1 PUSH2 0xA4F JUMP JUMPDEST PUSH1 0x40 MLOAD DUP1 SWAP2 SUB SWAP1 REVERT JUMPDEST POP PUSH1 0x40 MLOAD DUP1 PUSH1 0x60 ADD PUSH1 0x40 MSTORE DUP1 DUP5 DUP2 MSTORE PUSH1 0x20 ADD DUP4 DUP2 MSTORE PUSH1 0x20 ADD DUP3 PUSH1 0x2 DUP2 GT ISZERO PUSH2 0x55F JUMPI PUSH2 0x55E PUSH2 0x742 JUMP JUMPDEST JUMPDEST DUP2 MSTORE POP PUSH0 DUP1 CALLER PUSH20 0xFFFFFFFFFFFFFFFFFFFFFFFFFFFFFFFFFFFFFFFF AND PUSH20 0xFFFFFFFFFFFFFFFFFFFFFFFFFFFFFFFFFFFFFFFF AND DUP2 MSTORE PUSH1 0x20 ADD SWAP1 DUP2 MSTORE PUSH1 0x20 ADD PUSH0 KECCAK256 PUSH0 DUP3 ADD MLOAD DUP2 PUSH0 ADD SWAP1 DUP2 PUSH2 0x5B1 SWAP2 SWAP1 PUSH2 0xC69 JUMP JUMPDEST POP PUSH1 0x20 DUP3 ADD MLOAD DUP2 PUSH1 0x1 ADD SSTORE PUSH1 0x40 DUP3 ADD MLOAD DUP2 PUSH1 0x2 ADD PUSH0 PUSH2 0x100 EXP DUP2 SLOAD DUP2 PUSH1 0xFF MUL NOT AND SWAP1 DUP4 PUSH1 0x2 DUP2 GT ISZERO PUSH2 0x5E6 JUMPI PUSH2 0x5E5 PUSH2 0x742 JUMP JUMPDEST JUMPDEST MUL OR SWAP1 SSTORE POP SWAP1 POP POP POP POP POP JUMP JUMPDEST PUSH1 0x40 MLOAD DUP1 PUSH1 0x60 ADD PUSH1 0x40 MSTORE DUP1 PUSH1 0x60 DUP2 MSTORE PUSH1 0x20 ADD PUSH0 DUP2 MSTORE PUSH1 0x20 ADD PUSH0 PUSH1 0x2 DUP2 GT ISZERO PUSH2 0x61E JUMPI PUSH2 0x61D PUSH2 0x742 JUMP JUMPDEST JUMPDEST DUP2 MSTORE POP SWAP1 JUMP JUMPDEST PUSH0 PUSH1 0x40 MLOAD SWAP1 POP SWAP1 JUMP JUMPDEST PUSH0 DUP1 REVERT JUMPDEST PUSH0 DUP1 REVERT JUMPDEST PUSH0 PUSH20 0xFFFFFFFFFFFFFFFFFFFFFFFFFFFFFFFFFFFFFFFF DUP3 AND SWAP1 POP SWAP2 SWAP1 POP JUMP JUMPDEST PUSH0 PUSH2 0x65E DUP3 PUSH2 0x635 JUMP JUMPDEST SWAP1 POP SWAP2 SWAP1 POP JUMP JUMPDEST PUSH2 0x66E DUP2 PUSH2 0x654 JUMP JUMPDEST DUP2 EQ PUSH2 0x678 JUMPI PUSH0 DUP1 REVERT JUMPDEST POP JUMP JUMPDEST PUSH0 DUP2 CALLDATALOAD SWAP1 POP PUSH2 0x689 DUP2 PUSH2 0x665 JUMP JUMPDEST SWAP3 SWAP2 POP POP JUMP JUMPDEST PUSH0 PUSH1 0x20 DUP3 DUP5 SUB SLT ISZERO PUSH2 0x6A4 JUMPI PUSH2 0x6A3 PUSH2 0x62D JUMP JUMPDEST JUMPDEST PUSH0 PUSH2 0x6B1 DUP5 DUP3 DUP6 ADD PUSH2 0x67B JUMP JUMPDEST SWAP2 POP POP SWAP3 SWAP2 POP POP JUMP JUMPDEST PUSH0 DUP2 MLOAD SWAP1 POP SWAP2 SWAP1 POP JUMP JUMPDEST PUSH0 DUP3 DUP3 MSTORE PUSH1 0x20 DUP3 ADD SWAP1 POP SWAP3 SWAP2 POP POP JUMP JUMPDEST DUP3 DUP2 DUP4 MCOPY PUSH0 DUP4 DUP4 ADD MSTORE POP POP POP JUMP JUMPDEST PUSH0 PUSH1 0x1F NOT PUSH1 0x1F DUP4 ADD AND SWAP1 POP SWAP2 SWAP1 POP JUMP JUMPDEST PUSH0 PUSH2 0x6FC DUP3 PUSH2 0x6BA JUMP JUMPDEST PUSH2 0x706 DUP2 DUP6 PUSH2 0x6C4 JUMP JUMPDEST SWAP4 POP PUSH2 0x716 DUP2 DUP6 PUSH1 0x20 DUP7 ADD PUSH2 0x6D4 JUMP JUMPDEST PUSH2 0x71F DUP2 PUSH2 0x6E2 JUMP JUMPDEST DUP5 ADD SWAP2 POP POP SWAP3 SWAP2 POP POP JUMP JUMPDEST PUSH0 DUP2 SWAP1 POP SWAP2 SWAP1 POP JUMP JUMPDEST PUSH2 0x73C DUP2 PUSH2 0x72A JUMP JUMPDEST DUP3 MSTORE POP POP JUMP JUMPDEST PUSH32 0x4E487B7100000000000000000000000000000000000000000000000000000000 PUSH0 MSTORE PUSH1 0x21 PUSH1 0x4 MSTORE PUSH1 0x24 PUSH0 REVERT JUMPDEST PUSH1 0x3 DUP2 LT PUSH2 0x780 JUMPI PUSH2 0x77F PUSH2 0x742 JUMP JUMPDEST JUMPDEST POP JUMP JUMPDEST PUSH0 DUP2 SWAP1 POP PUSH2 0x790 DUP3 PUSH2 0x76F JUMP JUMPDEST SWAP2 SWAP1 POP JUMP JUMPDEST PUSH0 PUSH2 0x79F DUP3 PUSH2 0x783 JUMP JUMPDEST SWAP1 POP SWAP2 SWAP1 POP JUMP JUMPDEST PUSH2 0x7AF DUP2 PUSH2 0x795 JUMP JUMPDEST DUP3 MSTORE POP POP JUMP JUMPDEST PUSH0 PUSH1 0x60 DUP4 ADD PUSH0 DUP4 ADD MLOAD DUP5 DUP3 SUB PUSH0 DUP7 ADD MSTORE PUSH2 0x7CF DUP3 DUP3 PUSH2 0x6F2 JUMP JUMPDEST SWAP2 POP POP PUSH1 0x20 DUP4 ADD MLOAD PUSH2 0x7E4 PUSH1 0x20 DUP7 ADD DUP3 PUSH2 0x733 JUMP JUMPDEST POP PUSH1 0x40 DUP4 ADD MLOAD PUSH2 0x7F7 PUSH1 0x40 DUP7 ADD DUP3 PUSH2 0x7A6 JUMP JUMPDEST POP DUP1 SWAP2 POP POP SWAP3 SWAP2 POP POP JUMP JUMPDEST PUSH0 PUSH1 0x20 DUP3 ADD SWAP1 POP DUP2 DUP2 SUB PUSH0 DUP4 ADD MSTORE PUSH2 0x81A DUP2 DUP5 PUSH2 0x7B5 JUMP JUMPDEST SWAP1 POP SWAP3 SWAP2 POP POP JUMP JUMPDEST PUSH0 DUP1 REVERT JUMPDEST PUSH0 DUP1 REVERT JUMPDEST PUSH32 0x4E487B7100000000000000000000000000000000000000000000000000000000 PUSH0 MSTORE PUSH1 0x41 PUSH1 0x4 MSTORE PUSH1 0x24 PUSH0 REVERT JUMPDEST PUSH2 0x860 DUP3 PUSH2 0x6E2 JUMP JUMPDEST DUP2 ADD DUP2 DUP2 LT PUSH8 0xFFFFFFFFFFFFFFFF DUP3 GT OR ISZERO PUSH2 0x87F JUMPI PUSH2 0x87E PUSH2 0x82A JUMP JUMPDEST JUMPDEST DUP1 PUSH1 0x40 MSTORE POP POP POP JUMP JUMPDEST PUSH0 PUSH2 0x891 PUSH2 0x624 JUMP JUMPDEST SWAP1 POP PUSH2 0x89D DUP3 DUP3 PUSH2 0x857 JUMP JUMPDEST SWAP2 SWAP1 POP JUMP JUMPDEST PUSH0 PUSH8 0xFFFFFFFFFFFFFFFF DUP3 GT ISZERO PUSH2 0x8BC JUMPI PUSH2 0x8BB PUSH2 0x82A JUMP JUMPDEST JUMPDEST PUSH2 0x8C5 DUP3 PUSH2 0x6E2 JUMP JUMPDEST SWAP1 POP PUSH1 0x20 DUP2 ADD SWAP1 POP SWAP2 SWAP1 POP JUMP JUMPDEST DUP3 DUP2 DUP4 CALLDATACOPY PUSH0 DUP4 DUP4 ADD MSTORE POP POP POP JUMP JUMPDEST PUSH0 PUSH2 0x8F2 PUSH2 0x8ED DUP5 PUSH2 0x8A2 JUMP JUMPDEST PUSH2 0x888 JUMP JUMPDEST SWAP1 POP DUP3 DUP2 MSTORE PUSH1 0x20 DUP2 ADD DUP5 DUP5 DUP5 ADD GT ISZERO PUSH2 0x90E JUMPI PUSH2 0x90D PUSH2 0x826 JUMP JUMPDEST JUMPDEST PUSH2 0x919 DUP5 DUP3 DUP6 PUSH2 0x8D2 JUMP JUMPDEST POP SWAP4 SWAP3 POP POP POP JUMP JUMPDEST PUSH0 DUP3 PUSH1 0x1F DUP4 ADD SLT PUSH2 0x935 JUMPI PUSH2 0x934 PUSH2 0x822 JUMP JUMPDEST JUMPDEST DUP2 CALLDATALOAD PUSH2 0x945 DUP5 DUP3 PUSH1 0x20 DUP7 ADD PUSH2 0x8E0 JUMP JUMPDEST SWAP2 POP POP SWAP3 SWAP2 POP POP JUMP JUMPDEST PUSH2 0x957 DUP2 PUSH2 0x72A JUMP JUMPDEST DUP2 EQ PUSH2 0x961 JUMPI PUSH0 DUP1 REVERT JUMPDEST POP JUMP JUMPDEST PUSH0 DUP2 CALLDATALOAD SWAP1 POP PUSH2 0x972 DUP2 PUSH2 0x94E JUMP JUMPDEST SWAP3 SWAP2 POP POP JUMP JUMPDEST PUSH1 0x3 DUP2 LT PUSH2 0x984 JUMPI PUSH0 DUP1 REVERT JUMPDEST POP JUMP JUMPDEST PUSH0 DUP2 CALLDATALOAD SWAP1 POP PUSH2 0x995 DUP2 PUSH2 0x978 JUMP JUMPDEST SWAP3 SWAP2 POP POP JUMP JUMPDEST PUSH0 DUP1 PUSH0 PUSH1 0x60 DUP5 DUP7 SUB SLT ISZERO PUSH2 0x9B2 JUMPI PUSH2 0x9B1 PUSH2 0x62D JUMP JUMPDEST JUMPDEST PUSH0 DUP5 ADD CALLDATALOAD PUSH8 0xFFFFFFFFFFFFFFFF DUP2 GT ISZERO PUSH2 0x9CF JUMPI PUSH2 0x9CE PUSH2 0x631 JUMP JUMPDEST JUMPDEST PUSH2 0x9DB DUP7 DUP3 DUP8 ADD PUSH2 0x921 JUMP JUMPDEST SWAP4 POP POP PUSH1 0x20 PUSH2 0x9EC DUP7 DUP3 DUP8 ADD PUSH2 0x964 JUMP JUMPDEST SWAP3 POP POP PUSH1 0x40 PUSH2 0x9FD DUP7 DUP3 DUP8 ADD PUSH2 0x987 JUMP JUMPDEST SWAP2 POP POP SWAP3 POP SWAP3 POP SWAP3 JUMP JUMPDEST PUSH0 DUP3 DUP3 MSTORE PUSH1 0x20 DUP3 ADD SWAP1 POP SWAP3 SWAP2 POP POP JUMP JUMPDEST PUSH0 PUSH2 0xA21 DUP3 PUSH2 0x6BA JUMP JUMPDEST PUSH2 0xA2B DUP2 DUP6 PUSH2 0xA07 JUMP JUMPDEST SWAP4 POP PUSH2 0xA3B DUP2 DUP6 PUSH1 0x20 DUP7 ADD PUSH2 0x6D4 JUMP JUMPDEST PUSH2 0xA44 DUP2 PUSH2 0x6E2 JUMP JUMPDEST DUP5 ADD SWAP2 POP POP SWAP3 SWAP2 POP POP JUMP JUMPDEST PUSH0 PUSH1 0x20 DUP3 ADD SWAP1 POP DUP2 DUP2 SUB PUSH0 DUP4 ADD MSTORE PUSH2 0xA67 DUP2 DUP5 PUSH2 0xA17 JUMP JUMPDEST SWAP1 POP SWAP3 SWAP2 POP POP JUMP JUMPDEST PUSH32 0x4E487B7100000000000000000000000000000000000000000000000000000000 PUSH0 MSTORE PUSH1 0x22 PUSH1 0x4 MSTORE PUSH1 0x24 PUSH0 REVERT JUMPDEST PUSH0 PUSH1 0x2 DUP3 DIV SWAP1 POP PUSH1 0x1 DUP3 AND DUP1 PUSH2 0xAB3 JUMPI PUSH1 0x7F DUP3 AND SWAP2 POP JUMPDEST PUSH1 0x20 DUP3 LT DUP2 SUB PUSH2 0xAC6 JUMPI PUSH2 0xAC5 PUSH2 0xA6F JUMP JUMPDEST JUMPDEST POP SWAP2 SWAP1 POP JUMP JUMPDEST PUSH0 DUP2 SWAP1 POP DUP2 PUSH0 MSTORE PUSH1 0x20 PUSH0 KECCAK256 SWAP1 POP SWAP2 SWAP1 POP JUMP JUMPDEST PUSH0 PUSH1 0x20 PUSH1 0x1F DUP4 ADD DIV SWAP1 POP SWAP2 SWAP1 POP JUMP JUMPDEST PUSH0 DUP3 DUP3 SHL SWAP1 POP SWAP3 SWAP2 POP POP JUMP JUMPDEST PUSH0 PUSH1 0x8 DUP4 MUL PUSH2 0xB28 PUSH32 0xFFFFFFFFFFFFFFFFFFFFFFFFFFFFFFFFFFFFFFFFFFFFFFFFFFFFFFFFFFFFFFFF DUP3 PUSH2 0xAED JUMP JUMPDEST PUSH2 0xB32 DUP7 DUP4 PUSH2 0xAED JUMP JUMPDEST SWAP6 POP DUP1 NOT DUP5 AND SWAP4 POP DUP1 DUP7 AND DUP5 OR SWAP3 POP POP POP SWAP4 SWAP3 POP POP POP JUMP JUMPDEST PUSH0 DUP2 SWAP1 POP SWAP2 SWAP1 POP JUMP JUMPDEST PUSH0 PUSH2 0xB6D PUSH2 0xB68 PUSH2 0xB63 DUP5 PUSH2 0x72A JUMP JUMPDEST PUSH2 0xB4A JUMP JUMPDEST PUSH2 0x72A JUMP JUMPDEST SWAP1 POP SWAP2 SWAP1 POP JUMP JUMPDEST PUSH0 DUP2 SWAP1 POP SWAP2 SWAP1 POP JUMP JUMPDEST PUSH2 0xB86 DUP4 PUSH2 0xB53 JUMP JUMPDEST PUSH2 0xB9A PUSH2 0xB92 DUP3 PUSH2 0xB74 JUMP JUMPDEST DUP5 DUP5 SLOAD PUSH2 0xAF9 JUMP JUMPDEST DUP3 SSTORE POP POP POP POP JUMP JUMPDEST PUSH0 SWAP1 JUMP JUMPDEST PUSH2 0xBAE PUSH2 0xBA2 JUMP JUMPDEST PUSH2 0xBB9 DUP2 DUP5 DUP5 PUSH2 0xB7D JUMP JUMPDEST POP POP POP JUMP JUMPDEST JUMPDEST DUP2 DUP2 LT ISZERO PUSH2 0xBDC JUMPI PUSH2 0xBD1 PUSH0 DUP3 PUSH2 0xBA6 JUMP JUMPDEST PUSH1 0x1 DUP2 ADD SWAP1 POP PUSH2 0xBBF JUMP JUMPDEST POP POP JUMP JUMPDEST PUSH1 0x1F DUP3 GT ISZERO PUSH2 0xC21 JUMPI PUSH2 0xBF2 DUP2 PUSH2 0xACC JUMP JUMPDEST PUSH2 0xBFB DUP5 PUSH2 0xADE JUMP JUMPDEST DUP2 ADD PUSH1 0x20 DUP6 LT ISZERO PUSH2 0xC0A JUMPI DUP2 SWAP1 POP JUMPDEST PUSH2 0xC1E PUSH2 0xC16 DUP6 PUSH2 0xADE JUMP JUMPDEST DUP4 ADD DUP3 PUSH2 0xBBE JUMP JUMPDEST POP POP JUMPDEST POP POP POP JUMP JUMPDEST PUSH0 DUP3 DUP3 SHR SWAP1 POP SWAP3 SWAP2 POP POP JUMP JUMPDEST PUSH0 PUSH2 0xC41 PUSH0 NOT DUP5 PUSH1 0x8 MUL PUSH2 0xC26 JUMP JUMPDEST NOT DUP1 DUP4 AND SWAP2 POP POP SWAP3 SWAP2 POP POP JUMP JUMPDEST PUSH0 PUSH2 0xC59 DUP4 DUP4 PUSH2 0xC32 JUMP JUMPDEST SWAP2 POP DUP3 PUSH1 0x2 MUL DUP3 OR SWAP1 POP SWAP3 SWAP2 POP POP JUMP JUMPDEST PUSH2 0xC72 DUP3 PUSH2 0x6BA JUMP JUMPDEST PUSH8 0xFFFFFFFFFFFFFFFF DUP2 GT ISZERO PUSH2 0xC8B JUMPI PUSH2 0xC8A PUSH2 0x82A JUMP JUMPDEST JUMPDEST PUSH2 0xC95 DUP3 SLOAD PUSH2 0xA9C JUMP JUMPDEST PUSH2 0xCA0 DUP3 DUP3 DUP6 PUSH2 0xBE0 JUMP JUMPDEST PUSH0 PUSH1 0x20 SWAP1 POP PUSH1 0x1F DUP4 GT PUSH1 0x1 DUP2 EQ PUSH2 0xCD1 JUMPI PUSH0 DUP5 ISZERO PUSH2 0xCBF JUMPI DUP3 DUP8 ADD MLOAD SWAP1 POP JUMPDEST PUSH2 0xCC9 DUP6 DUP3 PUSH2 0xC4E JUMP JUMPDEST DUP7 SSTORE POP PUSH2 0xD30 JUMP JUMPDEST PUSH1 0x1F NOT DUP5 AND PUSH2 0xCDF DUP7 PUSH2 0xACC JUMP JUMPDEST PUSH0 JUMPDEST DUP3 DUP2 LT ISZERO PUSH2 0xD06 JUMPI DUP5 DUP10 ADD MLOAD DUP3 SSTORE PUSH1 0x1 DUP3 ADD SWAP2 POP PUSH1 0x20 DUP6 ADD SWAP5 POP PUSH1 0x20 DUP2 ADD SWAP1 POP PUSH2 0xCE1 JUMP JUMPDEST DUP7 DUP4 LT ISZERO PUSH2 0xD23 JUMPI DUP5 DUP10 ADD MLOAD PUSH2 0xD1F PUSH1 0x1F DUP10 AND DUP3 PUSH2 0xC32 JUMP JUMPDEST DUP4 SSTORE POP JUMPDEST PUSH1 0x1 PUSH1 0x2 DUP9 MUL ADD DUP9 SSTORE POP POP POP JUMPDEST POP POP POP POP POP POP JUMP INVALID LOG2 PUSH5 0x6970667358 0x22 SLT KECCAK256 0xB6 SWAP5 DELEGATECALL CALLCODE 0xEC SLT AND 0xE1 EXTCODEHASH 0xC0 0xB6 0xDC GASPRICE DUP9 0xC STATICCALL 0xC5 LOG2 PREVRANDAO ISZERO 0xDA 0xE1 SWAP6 0xD0 0xDA 0x2E DUP3 PUSH10 0x63AB30BA64736F6C6343 STOP ADDMOD BYTE STOP CALLER "
				},
				"gasEstimates": {
					"creation": {
						"codeDepositCost": "687600",
						"executionCost": "719",
						"totalCost": "688319"
					},
					"external": {
						"createUserData(string,uint256,uint8)": "infinite",
						"getMyUserData()": "infinite",
						"getOtherUserData(address)": "infinite"
					}
				},
				"methodIdentifiers": {
					"createUserData(string,uint256,uint8)": "d6c390ec",
					"getMyUserData()": "92146b8b",
					"getOtherUserData(address)": "091c4553"
				}
			},
			"storageLayout": {
				"storage": [
					{
						"astId": 28,
						"contract": "Contracts/User.sol:UserContract",
						"label": "users",
						"offset": 0,
						"slot": "0",
						"type": "t_mapping(t_address,t_struct(User)23_storage)"
					}
				],
				"types": {
					"t_address": {
						"encoding": "inplace",
						"label": "address",
						"numberOfBytes": "20"
					},
					"t_enum(Gender)15": {
						"encoding": "inplace",
						"label": "enum UserContract.Gender",
						"numberOfBytes": "1"
					},
					"t_mapping(t_address,t_struct(User)23_storage)": {
						"encoding": "mapping",
						"key": "t_address",
						"label": "mapping(address => struct UserContract.User)",
						"numberOfBytes": "32",
						"value": "t_struct(User)23_storage"
					},
					"t_string_storage": {
						"encoding": "bytes",
						"label": "string",
						"numberOfBytes": "32"
					},
					"t_struct(User)23_storage": {
						"encoding": "inplace",
						"label": "struct UserContract.User",
						"members": [
							{
								"astId": 17,
								"contract": "Contracts/User.sol:UserContract",
								"label": "fullName",
								"offset": 0,
								"slot": "0",
								"type": "t_string_storage"
							},
							{
								"astId": 19,
								"contract": "Contracts/User.sol:UserContract",
								"label": "dateOfBirth",
								"offset": 0,
								"slot": "1",
								"type": "t_uint256"
							},
							{
								"astId": 22,
								"contract": "Contracts/User.sol:UserContract",
								"label": "gender",
								"offset": 0,
								"slot": "2",
								"type": "t_enum(Gender)15"
							}
						],
						"numberOfBytes": "96"
					},
					"t_uint256": {
						"encoding": "inplace",
						"label": "uint256",
						"numberOfBytes": "32"
					}
				}
			},
			"userdoc": {
				"kind": "user",
				"methods": {},
				"version": 1
			}
		}
	}
}